{
	"contracts/Property.sol": {
		"main": {
			"abi": [
				{
					"inputs": [
						{
							"internalType": "uint256",
							"name": "_propertyID",
							"type": "uint256"
						},
						{
							"internalType": "string",
							"name": "_location",
							"type": "string"
						},
						{
							"internalType": "enum main.PropertyType",
							"name": "_propertyType",
							"type": "uint8"
						},
						{
							"internalType": "string",
							"name": "_size",
							"type": "string"
						},
						{
							"internalType": "string",
							"name": "_currentOwner",
							"type": "string"
						},
						{
							"internalType": "string",
							"name": "_currentOwnershipTransferDate",
							"type": "string"
						}
					],
					"name": "addProperty",
					"outputs": [
						{
							"internalType": "string",
							"name": "",
							"type": "string"
						}
					],
					"stateMutability": "nonpayable",
					"type": "function"
				},
				{
					"inputs": [
						{
							"internalType": "uint256",
							"name": "_propertyID",
							"type": "uint256"
						}
					],
					"name": "getPropertByID",
					"outputs": [
						{
							"internalType": "uint256",
							"name": "PropertyID",
							"type": "uint256"
						},
						{
							"internalType": "string",
							"name": "location",
							"type": "string"
						},
						{
							"internalType": "string",
							"name": "Property_Type",
							"type": "string"
						},
						{
							"internalType": "string",
							"name": "size",
							"type": "string"
						},
						{
							"internalType": "string",
							"name": "Owner",
							"type": "string"
						},
						{
							"internalType": "string",
							"name": "PurchasedOn",
							"type": "string"
						}
					],
					"stateMutability": "view",
					"type": "function"
				},
				{
					"inputs": [
						{
							"internalType": "uint256",
							"name": "_propertyID",
							"type": "uint256"
						},
						{
							"internalType": "string",
							"name": "_newOwner",
							"type": "string"
						},
						{
							"internalType": "string",
							"name": "_tranferDate",
							"type": "string"
						}
					],
					"name": "transferProperty",
					"outputs": [
						{
							"internalType": "string",
							"name": "",
							"type": "string"
						}
					],
					"stateMutability": "nonpayable",
					"type": "function"
				}
			],
			"devdoc": {
				"kind": "dev",
				"methods": {},
				"version": 1
			},
			"evm": {
				"assembly": "    /* \"contracts/Property.sol\":56:3088  contract main {... */\n  mstore(0x40, 0x80)\n  callvalue\n  dup1\n  iszero\n  tag_1\n  jumpi\n  0x00\n  dup1\n  revert\ntag_1:\n  pop\n  dataSize(sub_0)\n  dup1\n  dataOffset(sub_0)\n  0x00\n  codecopy\n  0x00\n  return\nstop\n\nsub_0: assembly {\n        /* \"contracts/Property.sol\":56:3088  contract main {... */\n      mstore(0x40, 0x80)\n      callvalue\n      dup1\n      iszero\n      tag_1\n      jumpi\n      0x00\n      dup1\n      revert\n    tag_1:\n      pop\n      jumpi(tag_2, lt(calldatasize, 0x04))\n      shr(0xe0, calldataload(0x00))\n      dup1\n      0x21a9ecb2\n      eq\n      tag_3\n      jumpi\n      dup1\n      0x3e14d617\n      eq\n      tag_4\n      jumpi\n      dup1\n      0x71eb56d8\n      eq\n      tag_5\n      jumpi\n    tag_2:\n      0x00\n      dup1\n      revert\n        /* \"contracts/Property.sol\":535:1270  function addProperty(... */\n    tag_3:\n      tag_6\n      0x04\n      dup1\n      calldatasize\n      sub\n      dup2\n      add\n      swap1\n      tag_7\n      swap2\n      swap1\n      tag_8\n      jump\t// in\n    tag_7:\n      tag_9\n      jump\t// in\n    tag_6:\n      mload(0x40)\n      tag_10\n      swap2\n      swap1\n      tag_11\n      jump\t// in\n    tag_10:\n      mload(0x40)\n      dup1\n      swap2\n      sub\n      swap1\n      return\n        /* \"contracts/Property.sol\":1276:1827  function transferProperty(... */\n    tag_4:\n      tag_12\n      0x04\n      dup1\n      calldatasize\n      sub\n      dup2\n      add\n      swap1\n      tag_13\n      swap2\n      swap1\n      tag_14\n      jump\t// in\n    tag_13:\n      tag_15\n      jump\t// in\n    tag_12:\n      mload(0x40)\n      tag_16\n      swap2\n      swap1\n      tag_11\n      jump\t// in\n    tag_16:\n      mload(0x40)\n      dup1\n      swap2\n      sub\n      swap1\n      return\n        /* \"contracts/Property.sol\":1833:2657  function getPropertByID(uint256 _propertyID)... */\n    tag_5:\n      tag_17\n      0x04\n      dup1\n      calldatasize\n      sub\n      dup2\n      add\n      swap1\n      tag_18\n      swap2\n      swap1\n      tag_19\n      jump\t// in\n    tag_18:\n      tag_20\n      jump\t// in\n    tag_17:\n      mload(0x40)\n      tag_21\n      swap7\n      swap6\n      swap5\n      swap4\n      swap3\n      swap2\n      swap1\n      tag_22\n      jump\t// in\n    tag_21:\n      mload(0x40)\n      dup1\n      swap2\n      sub\n      swap1\n      return\n        /* \"contracts/Property.sol\":535:1270  function addProperty(... */\n    tag_9:\n        /* \"contracts/Property.sol\":795:808  string memory */\n      0x60\n        /* \"contracts/Property.sol\":867:878  _propertyID */\n      dup7\n        /* \"contracts/Property.sol\":824:839  propertyMapping */\n      0x00\n        /* \"contracts/Property.sol\":824:852  propertyMapping[_propertyID] */\n      dup1\n        /* \"contracts/Property.sol\":840:851  _propertyID */\n      dup10\n        /* \"contracts/Property.sol\":824:852  propertyMapping[_propertyID] */\n      dup2\n      mstore\n      0x20\n      add\n      swap1\n      dup2\n      mstore\n      0x20\n      add\n      0x00\n      keccak256\n        /* \"contracts/Property.sol\":824:863  propertyMapping[_propertyID].propertyID */\n      0x00\n      add\n      sload\n        /* \"contracts/Property.sol\":824:878  propertyMapping[_propertyID].propertyID == _propertyID */\n      sub\n        /* \"contracts/Property.sol\":820:1264  if (propertyMapping[_propertyID].propertyID == _propertyID) {... */\n      tag_24\n      jumpi\n        /* \"contracts/Property.sol\":894:926  return \"Property already exists\" */\n      mload(0x40)\n      dup1\n      0x40\n      add\n      0x40\n      mstore\n      dup1\n      0x17\n      dup2\n      mstore\n      0x20\n      add\n      0x50726f706572747920616c726561647920657869737473000000000000000000\n      dup2\n      mstore\n      pop\n      swap1\n      pop\n      jump(tag_23)\n        /* \"contracts/Property.sol\":820:1264  if (propertyMapping[_propertyID].propertyID == _propertyID) {... */\n    tag_24:\n        /* \"contracts/Property.sol\":988:1204  PropertyStruct(... */\n      mload(0x40)\n      dup1\n      0xc0\n      add\n      0x40\n      mstore\n      dup1\n        /* \"contracts/Property.sol\":1020:1031  _propertyID */\n      dup9\n        /* \"contracts/Property.sol\":988:1204  PropertyStruct(... */\n      dup2\n      mstore\n      0x20\n      add\n        /* \"contracts/Property.sol\":1049:1058  _location */\n      dup8\n        /* \"contracts/Property.sol\":988:1204  PropertyStruct(... */\n      dup2\n      mstore\n      0x20\n      add\n        /* \"contracts/Property.sol\":1076:1089  _propertyType */\n      dup7\n        /* \"contracts/Property.sol\":988:1204  PropertyStruct(... */\n      0x02\n      dup2\n      gt\n      iszero\n      tag_26\n      jumpi\n      tag_27\n      tag_28\n      jump\t// in\n    tag_27:\n    tag_26:\n      dup2\n      mstore\n      0x20\n      add\n        /* \"contracts/Property.sol\":1107:1112  _size */\n      dup6\n        /* \"contracts/Property.sol\":988:1204  PropertyStruct(... */\n      dup2\n      mstore\n      0x20\n      add\n        /* \"contracts/Property.sol\":1130:1143  _currentOwner */\n      dup5\n        /* \"contracts/Property.sol\":988:1204  PropertyStruct(... */\n      dup2\n      mstore\n      0x20\n      add\n        /* \"contracts/Property.sol\":1161:1190  _currentOwnershipTransferDate */\n      dup4\n        /* \"contracts/Property.sol\":988:1204  PropertyStruct(... */\n      dup2\n      mstore\n      pop\n        /* \"contracts/Property.sol\":957:972  propertyMapping */\n      0x00\n        /* \"contracts/Property.sol\":957:985  propertyMapping[_propertyID] */\n      dup1\n        /* \"contracts/Property.sol\":973:984  _propertyID */\n      dup10\n        /* \"contracts/Property.sol\":957:985  propertyMapping[_propertyID] */\n      dup2\n      mstore\n      0x20\n      add\n      swap1\n      dup2\n      mstore\n      0x20\n      add\n      0x00\n      keccak256\n        /* \"contracts/Property.sol\":957:1204  propertyMapping[_propertyID] = PropertyStruct(... */\n      0x00\n      dup3\n      add\n      mload\n      dup2\n      0x00\n      add\n      sstore\n      0x20\n      dup3\n      add\n      mload\n      dup2\n      0x01\n      add\n      swap1\n      dup2\n      tag_29\n      swap2\n      swap1\n      tag_30\n      jump\t// in\n    tag_29:\n      pop\n      0x40\n      dup3\n      add\n      mload\n      dup2\n      0x02\n      add\n      exp(0x0100, 0x00)\n      dup2\n      sload\n      dup2\n      0xff\n      mul\n      not\n      and\n      swap1\n      dup4\n      0x02\n      dup2\n      gt\n      iszero\n      tag_31\n      jumpi\n      tag_32\n      tag_28\n      jump\t// in\n    tag_32:\n    tag_31:\n      mul\n      or\n      swap1\n      sstore\n      pop\n      0x60\n      dup3\n      add\n      mload\n      dup2\n      0x03\n      add\n      swap1\n      dup2\n      tag_33\n      swap2\n      swap1\n      tag_30\n      jump\t// in\n    tag_33:\n      pop\n      0x80\n      dup3\n      add\n      mload\n      dup2\n      0x04\n      add\n      swap1\n      dup2\n      tag_34\n      swap2\n      swap1\n      tag_30\n      jump\t// in\n    tag_34:\n      pop\n      0xa0\n      dup3\n      add\n      mload\n      dup2\n      0x05\n      add\n      swap1\n      dup2\n      tag_35\n      swap2\n      swap1\n      tag_30\n      jump\t// in\n    tag_35:\n      pop\n      swap1\n      pop\n      pop\n        /* \"contracts/Property.sol\":1218:1253  return \"Property added suceesfully\" */\n      mload(0x40)\n      dup1\n      0x40\n      add\n      0x40\n      mstore\n      dup1\n      0x1a\n      dup2\n      mstore\n      0x20\n      add\n      0x50726f70657274792061646465642073756365657366756c6c79000000000000\n      dup2\n      mstore\n      pop\n      swap1\n      pop\n        /* \"contracts/Property.sol\":535:1270  function addProperty(... */\n    tag_23:\n      swap7\n      swap6\n      pop\n      pop\n      pop\n      pop\n      pop\n      pop\n      jump\t// out\n        /* \"contracts/Property.sol\":1276:1827  function transferProperty(... */\n    tag_15:\n        /* \"contracts/Property.sol\":1422:1435  string memory */\n      0x60\n        /* \"contracts/Property.sol\":1494:1505  _propertyID */\n      dup4\n        /* \"contracts/Property.sol\":1451:1466  propertyMapping */\n      0x00\n        /* \"contracts/Property.sol\":1451:1479  propertyMapping[_propertyID] */\n      dup1\n        /* \"contracts/Property.sol\":1467:1478  _propertyID */\n      dup7\n        /* \"contracts/Property.sol\":1451:1479  propertyMapping[_propertyID] */\n      dup2\n      mstore\n      0x20\n      add\n      swap1\n      dup2\n      mstore\n      0x20\n      add\n      0x00\n      keccak256\n        /* \"contracts/Property.sol\":1451:1490  propertyMapping[_propertyID].propertyID */\n      0x00\n      add\n      sload\n        /* \"contracts/Property.sol\":1451:1505  propertyMapping[_propertyID].propertyID == _propertyID */\n      sub\n        /* \"contracts/Property.sol\":1447:1821  if (propertyMapping[_propertyID].propertyID == _propertyID) {... */\n      tag_37\n      jumpi\n        /* \"contracts/Property.sol\":1521:1552  PropertyStruct storage property */\n      0x00\n        /* \"contracts/Property.sol\":1555:1570  propertyMapping */\n      dup1\n        /* \"contracts/Property.sol\":1555:1583  propertyMapping[_propertyID] */\n      0x00\n        /* \"contracts/Property.sol\":1571:1582  _propertyID */\n      dup7\n        /* \"contracts/Property.sol\":1555:1583  propertyMapping[_propertyID] */\n      dup2\n      mstore\n      0x20\n      add\n      swap1\n      dup2\n      mstore\n      0x20\n      add\n      0x00\n      keccak256\n        /* \"contracts/Property.sol\":1521:1583  PropertyStruct storage property = propertyMapping[_propertyID] */\n      swap1\n      pop\n        /* \"contracts/Property.sol\":1621:1630  _newOwner */\n      dup4\n        /* \"contracts/Property.sol\":1597:1605  property */\n      dup2\n        /* \"contracts/Property.sol\":1597:1618  property.currentOwner */\n      0x04\n      add\n        /* \"contracts/Property.sol\":1597:1630  property.currentOwner = _newOwner */\n      swap1\n      dup2\n      tag_38\n      swap2\n      swap1\n      tag_30\n      jump\t// in\n    tag_38:\n      pop\n        /* \"contracts/Property.sol\":1684:1696  _tranferDate */\n      dup3\n        /* \"contracts/Property.sol\":1644:1652  property */\n      dup2\n        /* \"contracts/Property.sol\":1644:1681  property.currentOwnershipTransferDate */\n      0x05\n      add\n        /* \"contracts/Property.sol\":1644:1696  property.currentOwnershipTransferDate = _tranferDate */\n      swap1\n      dup2\n      tag_39\n      swap2\n      swap1\n      tag_30\n      jump\t// in\n    tag_39:\n      pop\n        /* \"contracts/Property.sol\":1710:1748  return \"Transfer updated successfully\" */\n      mload(0x40)\n      dup1\n      0x40\n      add\n      0x40\n      mstore\n      dup1\n      0x1d\n      dup2\n      mstore\n      0x20\n      add\n      0x5472616e736665722075706461746564207375636365737366756c6c79000000\n      dup2\n      mstore\n      pop\n      swap2\n      pop\n      pop\n      jump(tag_36)\n        /* \"contracts/Property.sol\":1447:1821  if (propertyMapping[_propertyID].propertyID == _propertyID) {... */\n    tag_37:\n        /* \"contracts/Property.sol\":1779:1810  return \"Property not registred\" */\n      mload(0x40)\n      dup1\n      0x40\n      add\n      0x40\n      mstore\n      dup1\n      0x16\n      dup2\n      mstore\n      0x20\n      add\n      0x50726f7065727479206e6f742072656769737472656400000000000000000000\n      dup2\n      mstore\n      pop\n      swap1\n      pop\n        /* \"contracts/Property.sol\":1276:1827  function transferProperty(... */\n    tag_36:\n      swap4\n      swap3\n      pop\n      pop\n      pop\n      jump\t// out\n        /* \"contracts/Property.sol\":1833:2657  function getPropertByID(uint256 _propertyID)... */\n    tag_20:\n        /* \"contracts/Property.sol\":1928:1946  uint256 PropertyID */\n      0x00\n        /* \"contracts/Property.sol\":1960:1982  string memory location */\n      0x60\n        /* \"contracts/Property.sol\":1996:2023  string memory Property_Type */\n      dup1\n        /* \"contracts/Property.sol\":2037:2055  string memory size */\n      0x60\n        /* \"contracts/Property.sol\":2069:2088  string memory Owner */\n      dup1\n        /* \"contracts/Property.sol\":2102:2127  string memory PurchasedOn */\n      0x60\n        /* \"contracts/Property.sol\":2199:2210  _propertyID */\n      dup7\n        /* \"contracts/Property.sol\":2156:2171  propertyMapping */\n      0x00\n        /* \"contracts/Property.sol\":2156:2184  propertyMapping[_propertyID] */\n      dup1\n        /* \"contracts/Property.sol\":2172:2183  _propertyID */\n      dup10\n        /* \"contracts/Property.sol\":2156:2184  propertyMapping[_propertyID] */\n      dup2\n      mstore\n      0x20\n      add\n      swap1\n      dup2\n      mstore\n      0x20\n      add\n      0x00\n      keccak256\n        /* \"contracts/Property.sol\":2156:2195  propertyMapping[_propertyID].propertyID */\n      0x00\n      add\n      sload\n        /* \"contracts/Property.sol\":2156:2210  propertyMapping[_propertyID].propertyID == _propertyID */\n      sub\n        /* \"contracts/Property.sol\":2152:2651  if (propertyMapping[_propertyID].propertyID == _propertyID) {... */\n      tag_42\n      jumpi\n        /* \"contracts/Property.sol\":2226:2257  PropertyStruct storage property */\n      0x00\n        /* \"contracts/Property.sol\":2260:2275  propertyMapping */\n      dup1\n        /* \"contracts/Property.sol\":2260:2288  propertyMapping[_propertyID] */\n      0x00\n        /* \"contracts/Property.sol\":2276:2287  _propertyID */\n      dup10\n        /* \"contracts/Property.sol\":2260:2288  propertyMapping[_propertyID] */\n      dup2\n      mstore\n      0x20\n      add\n      swap1\n      dup2\n      mstore\n      0x20\n      add\n      0x00\n      keccak256\n        /* \"contracts/Property.sol\":2226:2288  PropertyStruct storage property = propertyMapping[_propertyID] */\n      swap1\n      pop\n        /* \"contracts/Property.sol\":2327:2335  property */\n      dup1\n        /* \"contracts/Property.sol\":2327:2346  property.propertyID */\n      0x00\n      add\n      sload\n        /* \"contracts/Property.sol\":2364:2372  property */\n      dup2\n        /* \"contracts/Property.sol\":2364:2381  property.location */\n      0x01\n      add\n        /* \"contracts/Property.sol\":2399:2430  toString(property.propertyType) */\n      tag_43\n        /* \"contracts/Property.sol\":2408:2416  property */\n      dup4\n        /* \"contracts/Property.sol\":2408:2429  property.propertyType */\n      0x02\n      add\n      0x00\n      swap1\n      sload\n      swap1\n      0x0100\n      exp\n      swap1\n      div\n      0xff\n      and\n        /* \"contracts/Property.sol\":2399:2407  toString */\n      tag_44\n        /* \"contracts/Property.sol\":2399:2430  toString(property.propertyType) */\n      jump\t// in\n    tag_43:\n        /* \"contracts/Property.sol\":2448:2456  property */\n      dup4\n        /* \"contracts/Property.sol\":2448:2461  property.size */\n      0x03\n      add\n        /* \"contracts/Property.sol\":2479:2487  property */\n      dup5\n        /* \"contracts/Property.sol\":2479:2500  property.currentOwner */\n      0x04\n      add\n        /* \"contracts/Property.sol\":2518:2526  property */\n      dup6\n        /* \"contracts/Property.sol\":2518:2555  property.currentOwnershipTransferDate */\n      0x05\n      add\n        /* \"contracts/Property.sol\":2302:2569  return (... */\n      dup5\n      dup1\n      sload\n      tag_45\n      swap1\n      tag_46\n      jump\t// in\n    tag_45:\n      dup1\n      0x1f\n      add\n      0x20\n      dup1\n      swap2\n      div\n      mul\n      0x20\n      add\n      mload(0x40)\n      swap1\n      dup2\n      add\n      0x40\n      mstore\n      dup1\n      swap3\n      swap2\n      swap1\n      dup2\n      dup2\n      mstore\n      0x20\n      add\n      dup3\n      dup1\n      sload\n      tag_47\n      swap1\n      tag_46\n      jump\t// in\n    tag_47:\n      dup1\n      iszero\n      tag_48\n      jumpi\n      dup1\n      0x1f\n      lt\n      tag_49\n      jumpi\n      0x0100\n      dup1\n      dup4\n      sload\n      div\n      mul\n      dup4\n      mstore\n      swap2\n      0x20\n      add\n      swap2\n      jump(tag_48)\n    tag_49:\n      dup3\n      add\n      swap2\n      swap1\n      0x00\n      mstore\n      keccak256(0x00, 0x20)\n      swap1\n    tag_50:\n      dup2\n      sload\n      dup2\n      mstore\n      swap1\n      0x01\n      add\n      swap1\n      0x20\n      add\n      dup1\n      dup4\n      gt\n      tag_50\n      jumpi\n      dup3\n      swap1\n      sub\n      0x1f\n      and\n      dup3\n      add\n      swap2\n    tag_48:\n      pop\n      pop\n      pop\n      pop\n      pop\n      swap5\n      pop\n      dup3\n      dup1\n      sload\n      tag_51\n      swap1\n      tag_46\n      jump\t// in\n    tag_51:\n      dup1\n      0x1f\n      add\n      0x20\n      dup1\n      swap2\n      div\n      mul\n      0x20\n      add\n      mload(0x40)\n      swap1\n      dup2\n      add\n      0x40\n      mstore\n      dup1\n      swap3\n      swap2\n      swap1\n      dup2\n      dup2\n      mstore\n      0x20\n      add\n      dup3\n      dup1\n      sload\n      tag_52\n      swap1\n      tag_46\n      jump\t// in\n    tag_52:\n      dup1\n      iszero\n      tag_53\n      jumpi\n      dup1\n      0x1f\n      lt\n      tag_54\n      jumpi\n      0x0100\n      dup1\n      dup4\n      sload\n      div\n      mul\n      dup4\n      mstore\n      swap2\n      0x20\n      add\n      swap2\n      jump(tag_53)\n    tag_54:\n      dup3\n      add\n      swap2\n      swap1\n      0x00\n      mstore\n      keccak256(0x00, 0x20)\n      swap1\n    tag_55:\n      dup2\n      sload\n      dup2\n      mstore\n      swap1\n      0x01\n      add\n      swap1\n      0x20\n      add\n      dup1\n      dup4\n      gt\n      tag_55\n      jumpi\n      dup3\n      swap1\n      sub\n      0x1f\n      and\n      dup3\n      add\n      swap2\n    tag_53:\n      pop\n      pop\n      pop\n      pop\n      pop\n      swap3\n      pop\n      dup2\n      dup1\n      sload\n      tag_56\n      swap1\n      tag_46\n      jump\t// in\n    tag_56:\n      dup1\n      0x1f\n      add\n      0x20\n      dup1\n      swap2\n      div\n      mul\n      0x20\n      add\n      mload(0x40)\n      swap1\n      dup2\n      add\n      0x40\n      mstore\n      dup1\n      swap3\n      swap2\n      swap1\n      dup2\n      dup2\n      mstore\n      0x20\n      add\n      dup3\n      dup1\n      sload\n      tag_57\n      swap1\n      tag_46\n      jump\t// in\n    tag_57:\n      dup1\n      iszero\n      tag_58\n      jumpi\n      dup1\n      0x1f\n      lt\n      tag_59\n      jumpi\n      0x0100\n      dup1\n      dup4\n      sload\n      div\n      mul\n      dup4\n      mstore\n      swap2\n      0x20\n      add\n      swap2\n      jump(tag_58)\n    tag_59:\n      dup3\n      add\n      swap2\n      swap1\n      0x00\n      mstore\n      keccak256(0x00, 0x20)\n      swap1\n    tag_60:\n      dup2\n      sload\n      dup2\n      mstore\n      swap1\n      0x01\n      add\n      swap1\n      0x20\n      add\n      dup1\n      dup4\n      gt\n      tag_60\n      jumpi\n      dup3\n      swap1\n      sub\n      0x1f\n      and\n      dup3\n      add\n      swap2\n    tag_58:\n      pop\n      pop\n      pop\n      pop\n      pop\n      swap2\n      pop\n      dup1\n      dup1\n      sload\n      tag_61\n      swap1\n      tag_46\n      jump\t// in\n    tag_61:\n      dup1\n      0x1f\n      add\n      0x20\n      dup1\n      swap2\n      div\n      mul\n      0x20\n      add\n      mload(0x40)\n      swap1\n      dup2\n      add\n      0x40\n      mstore\n      dup1\n      swap3\n      swap2\n      swap1\n      dup2\n      dup2\n      mstore\n      0x20\n      add\n      dup3\n      dup1\n      sload\n      tag_62\n      swap1\n      tag_46\n      jump\t// in\n    tag_62:\n      dup1\n      iszero\n      tag_63\n      jumpi\n      dup1\n      0x1f\n      lt\n      tag_64\n      jumpi\n      0x0100\n      dup1\n      dup4\n      sload\n      div\n      mul\n      dup4\n      mstore\n      swap2\n      0x20\n      add\n      swap2\n      jump(tag_63)\n    tag_64:\n      dup3\n      add\n      swap2\n      swap1\n      0x00\n      mstore\n      keccak256(0x00, 0x20)\n      swap1\n    tag_65:\n      dup2\n      sload\n      dup2\n      mstore\n      swap1\n      0x01\n      add\n      swap1\n      0x20\n      add\n      dup1\n      dup4\n      gt\n      tag_65\n      jumpi\n      dup3\n      swap1\n      sub\n      0x1f\n      and\n      dup3\n      add\n      swap2\n    tag_63:\n      pop\n      pop\n      pop\n      pop\n      pop\n      swap1\n      pop\n      swap7\n      pop\n      swap7\n      pop\n      swap7\n      pop\n      swap7\n      pop\n      swap7\n      pop\n      swap7\n      pop\n      pop\n      jump(tag_41)\n        /* \"contracts/Property.sol\":2152:2651  if (propertyMapping[_propertyID].propertyID == _propertyID) {... */\n    tag_42:\n        /* \"contracts/Property.sol\":2608:2640  revert(\"Property not registerd\") */\n      mload(0x40)\n      0x08c379a000000000000000000000000000000000000000000000000000000000\n      dup2\n      mstore\n      0x04\n      add\n      tag_67\n      swap1\n      tag_68\n      jump\t// in\n    tag_67:\n      mload(0x40)\n      dup1\n      swap2\n      sub\n      swap1\n      revert\n        /* \"contracts/Property.sol\":1833:2657  function getPropertByID(uint256 _propertyID)... */\n    tag_41:\n      swap2\n      swap4\n      swap6\n      pop\n      swap2\n      swap4\n      swap6\n      jump\t// out\n        /* \"contracts/Property.sol\":2663:3086  function toString(PropertyType _propertyType) private pure returns(string memory) {... */\n    tag_44:\n        /* \"contracts/Property.sol\":2730:2743  string memory */\n      0x60\n        /* \"contracts/Property.sol\":2787:2800  _propertyType */\n      dup2\n        /* \"contracts/Property.sol\":2759:2800  PropertyType.RESIDENTIAL == _propertyType */\n      0x02\n      dup2\n      gt\n      iszero\n      tag_70\n      jumpi\n      tag_71\n      tag_28\n      jump\t// in\n    tag_71:\n    tag_70:\n        /* \"contracts/Property.sol\":2759:2783  PropertyType.RESIDENTIAL */\n      0x00\n        /* \"contracts/Property.sol\":2759:2800  PropertyType.RESIDENTIAL == _propertyType */\n      0x02\n      dup2\n      gt\n      iszero\n      tag_72\n      jumpi\n      tag_73\n      tag_28\n      jump\t// in\n    tag_73:\n    tag_72:\n      sub\n        /* \"contracts/Property.sol\":2755:3079  if (PropertyType.RESIDENTIAL == _propertyType) {... */\n      tag_74\n      jumpi\n        /* \"contracts/Property.sol\":2816:2836  return \"RESIDENTIAL\" */\n      mload(0x40)\n      dup1\n      0x40\n      add\n      0x40\n      mstore\n      dup1\n      0x0b\n      dup2\n      mstore\n      0x20\n      add\n      0x5245534944454e5449414c000000000000000000000000000000000000000000\n      dup2\n      mstore\n      pop\n      swap1\n      pop\n      jump(tag_69)\n        /* \"contracts/Property.sol\":2755:3079  if (PropertyType.RESIDENTIAL == _propertyType) {... */\n    tag_74:\n        /* \"contracts/Property.sol\":2884:2897  _propertyType */\n      dup2\n        /* \"contracts/Property.sol\":2857:2897  PropertyType.COMMERCIAL == _propertyType */\n      0x02\n      dup2\n      gt\n      iszero\n      tag_76\n      jumpi\n      tag_77\n      tag_28\n      jump\t// in\n    tag_77:\n    tag_76:\n        /* \"contracts/Property.sol\":2857:2880  PropertyType.COMMERCIAL */\n      0x01\n        /* \"contracts/Property.sol\":2857:2897  PropertyType.COMMERCIAL == _propertyType */\n      0x02\n      dup2\n      gt\n      iszero\n      tag_78\n      jumpi\n      tag_79\n      tag_28\n      jump\t// in\n    tag_79:\n    tag_78:\n      sub\n        /* \"contracts/Property.sol\":2853:3079  if (PropertyType.COMMERCIAL == _propertyType) {... */\n      tag_80\n      jumpi\n        /* \"contracts/Property.sol\":2913:2932  return \"COMMERCIAL\" */\n      mload(0x40)\n      dup1\n      0x40\n      add\n      0x40\n      mstore\n      dup1\n      0x0a\n      dup2\n      mstore\n      0x20\n      add\n      0x434f4d4d45524349414c00000000000000000000000000000000000000000000\n      dup2\n      mstore\n      pop\n      swap1\n      pop\n      jump(tag_69)\n        /* \"contracts/Property.sol\":2853:3079  if (PropertyType.COMMERCIAL == _propertyType) {... */\n    tag_80:\n        /* \"contracts/Property.sol\":2980:2993  _propertyType */\n      dup2\n        /* \"contracts/Property.sol\":2953:2993  PropertyType.INDUSTRIAL == _propertyType */\n      0x02\n      dup2\n      gt\n      iszero\n      tag_82\n      jumpi\n      tag_83\n      tag_28\n      jump\t// in\n    tag_83:\n    tag_82:\n        /* \"contracts/Property.sol\":2953:2976  PropertyType.INDUSTRIAL */\n      0x02\n        /* \"contracts/Property.sol\":2953:2993  PropertyType.INDUSTRIAL == _propertyType */\n      dup1\n      dup2\n      gt\n      iszero\n      tag_84\n      jumpi\n      tag_85\n      tag_28\n      jump\t// in\n    tag_85:\n    tag_84:\n      sub\n        /* \"contracts/Property.sol\":2949:3079  if (PropertyType.INDUSTRIAL == _propertyType) {... */\n      tag_86\n      jumpi\n        /* \"contracts/Property.sol\":3009:3028  return \"INDUSTRIAL\" */\n      mload(0x40)\n      dup1\n      0x40\n      add\n      0x40\n      mstore\n      dup1\n      0x0a\n      dup2\n      mstore\n      0x20\n      add\n      0x494e445553545249414c00000000000000000000000000000000000000000000\n      dup2\n      mstore\n      pop\n      swap1\n      pop\n      jump(tag_69)\n        /* \"contracts/Property.sol\":2949:3079  if (PropertyType.INDUSTRIAL == _propertyType) {... */\n    tag_86:\n        /* \"contracts/Property.sol\":3059:3068  return \"\" */\n      mload(0x40)\n      dup1\n      0x20\n      add\n      0x40\n      mstore\n      dup1\n      0x00\n      dup2\n      mstore\n      pop\n      swap1\n      pop\n        /* \"contracts/Property.sol\":2663:3086  function toString(PropertyType _propertyType) private pure returns(string memory) {... */\n    tag_69:\n      swap2\n      swap1\n      pop\n      jump\t// out\n        /* \"#utility.yul\":7:82   */\n    tag_88:\n        /* \"#utility.yul\":40:46   */\n      0x00\n        /* \"#utility.yul\":73:75   */\n      0x40\n        /* \"#utility.yul\":67:76   */\n      mload\n        /* \"#utility.yul\":57:76   */\n      swap1\n      pop\n        /* \"#utility.yul\":7:82   */\n      swap1\n      jump\t// out\n        /* \"#utility.yul\":88:205   */\n    tag_89:\n        /* \"#utility.yul\":197:198   */\n      0x00\n        /* \"#utility.yul\":194:195   */\n      dup1\n        /* \"#utility.yul\":187:199   */\n      revert\n        /* \"#utility.yul\":211:328   */\n    tag_90:\n        /* \"#utility.yul\":320:321   */\n      0x00\n        /* \"#utility.yul\":317:318   */\n      dup1\n        /* \"#utility.yul\":310:322   */\n      revert\n        /* \"#utility.yul\":334:411   */\n    tag_91:\n        /* \"#utility.yul\":371:378   */\n      0x00\n        /* \"#utility.yul\":400:405   */\n      dup2\n        /* \"#utility.yul\":389:405   */\n      swap1\n      pop\n        /* \"#utility.yul\":334:411   */\n      swap2\n      swap1\n      pop\n      jump\t// out\n        /* \"#utility.yul\":417:539   */\n    tag_92:\n        /* \"#utility.yul\":490:514   */\n      tag_135\n        /* \"#utility.yul\":508:513   */\n      dup2\n        /* \"#utility.yul\":490:514   */\n      tag_91\n      jump\t// in\n    tag_135:\n        /* \"#utility.yul\":483:488   */\n      dup2\n        /* \"#utility.yul\":480:515   */\n      eq\n        /* \"#utility.yul\":470:533   */\n      tag_136\n      jumpi\n        /* \"#utility.yul\":529:530   */\n      0x00\n        /* \"#utility.yul\":526:527   */\n      dup1\n        /* \"#utility.yul\":519:531   */\n      revert\n        /* \"#utility.yul\":470:533   */\n    tag_136:\n        /* \"#utility.yul\":417:539   */\n      pop\n      jump\t// out\n        /* \"#utility.yul\":545:684   */\n    tag_93:\n        /* \"#utility.yul\":591:596   */\n      0x00\n        /* \"#utility.yul\":629:635   */\n      dup2\n        /* \"#utility.yul\":616:636   */\n      calldataload\n        /* \"#utility.yul\":607:636   */\n      swap1\n      pop\n        /* \"#utility.yul\":645:678   */\n      tag_138\n        /* \"#utility.yul\":672:677   */\n      dup2\n        /* \"#utility.yul\":645:678   */\n      tag_92\n      jump\t// in\n    tag_138:\n        /* \"#utility.yul\":545:684   */\n      swap3\n      swap2\n      pop\n      pop\n      jump\t// out\n        /* \"#utility.yul\":690:807   */\n    tag_94:\n        /* \"#utility.yul\":799:800   */\n      0x00\n        /* \"#utility.yul\":796:797   */\n      dup1\n        /* \"#utility.yul\":789:801   */\n      revert\n        /* \"#utility.yul\":813:930   */\n    tag_95:\n        /* \"#utility.yul\":922:923   */\n      0x00\n        /* \"#utility.yul\":919:920   */\n      dup1\n        /* \"#utility.yul\":912:924   */\n      revert\n        /* \"#utility.yul\":936:1038   */\n    tag_96:\n        /* \"#utility.yul\":977:983   */\n      0x00\n        /* \"#utility.yul\":1028:1030   */\n      0x1f\n        /* \"#utility.yul\":1024:1031   */\n      not\n        /* \"#utility.yul\":1019:1021   */\n      0x1f\n        /* \"#utility.yul\":1012:1017   */\n      dup4\n        /* \"#utility.yul\":1008:1022   */\n      add\n        /* \"#utility.yul\":1004:1032   */\n      and\n        /* \"#utility.yul\":994:1032   */\n      swap1\n      pop\n        /* \"#utility.yul\":936:1038   */\n      swap2\n      swap1\n      pop\n      jump\t// out\n        /* \"#utility.yul\":1044:1224   */\n    tag_97:\n        /* \"#utility.yul\":1092:1169   */\n      0x4e487b7100000000000000000000000000000000000000000000000000000000\n        /* \"#utility.yul\":1089:1090   */\n      0x00\n        /* \"#utility.yul\":1082:1170   */\n      mstore\n        /* \"#utility.yul\":1189:1193   */\n      0x41\n        /* \"#utility.yul\":1186:1187   */\n      0x04\n        /* \"#utility.yul\":1179:1194   */\n      mstore\n        /* \"#utility.yul\":1213:1217   */\n      0x24\n        /* \"#utility.yul\":1210:1211   */\n      0x00\n        /* \"#utility.yul\":1203:1218   */\n      revert\n        /* \"#utility.yul\":1230:1511   */\n    tag_98:\n        /* \"#utility.yul\":1313:1340   */\n      tag_144\n        /* \"#utility.yul\":1335:1339   */\n      dup3\n        /* \"#utility.yul\":1313:1340   */\n      tag_96\n      jump\t// in\n    tag_144:\n        /* \"#utility.yul\":1305:1311   */\n      dup2\n        /* \"#utility.yul\":1301:1341   */\n      add\n        /* \"#utility.yul\":1443:1449   */\n      dup2\n        /* \"#utility.yul\":1431:1441   */\n      dup2\n        /* \"#utility.yul\":1428:1450   */\n      lt\n        /* \"#utility.yul\":1407:1425   */\n      0xffffffffffffffff\n        /* \"#utility.yul\":1395:1405   */\n      dup3\n        /* \"#utility.yul\":1392:1426   */\n      gt\n        /* \"#utility.yul\":1389:1451   */\n      or\n        /* \"#utility.yul\":1386:1474   */\n      iszero\n      tag_145\n      jumpi\n        /* \"#utility.yul\":1454:1472   */\n      tag_146\n      tag_97\n      jump\t// in\n    tag_146:\n        /* \"#utility.yul\":1386:1474   */\n    tag_145:\n        /* \"#utility.yul\":1494:1504   */\n      dup1\n        /* \"#utility.yul\":1490:1492   */\n      0x40\n        /* \"#utility.yul\":1483:1505   */\n      mstore\n        /* \"#utility.yul\":1273:1511   */\n      pop\n        /* \"#utility.yul\":1230:1511   */\n      pop\n      pop\n      jump\t// out\n        /* \"#utility.yul\":1517:1646   */\n    tag_99:\n        /* \"#utility.yul\":1551:1557   */\n      0x00\n        /* \"#utility.yul\":1578:1598   */\n      tag_148\n      tag_88\n      jump\t// in\n    tag_148:\n        /* \"#utility.yul\":1568:1598   */\n      swap1\n      pop\n        /* \"#utility.yul\":1607:1640   */\n      tag_149\n        /* \"#utility.yul\":1635:1639   */\n      dup3\n        /* \"#utility.yul\":1627:1633   */\n      dup3\n        /* \"#utility.yul\":1607:1640   */\n      tag_98\n      jump\t// in\n    tag_149:\n        /* \"#utility.yul\":1517:1646   */\n      swap2\n      swap1\n      pop\n      jump\t// out\n        /* \"#utility.yul\":1652:1960   */\n    tag_100:\n        /* \"#utility.yul\":1714:1718   */\n      0x00\n        /* \"#utility.yul\":1804:1822   */\n      0xffffffffffffffff\n        /* \"#utility.yul\":1796:1802   */\n      dup3\n        /* \"#utility.yul\":1793:1823   */\n      gt\n        /* \"#utility.yul\":1790:1846   */\n      iszero\n      tag_151\n      jumpi\n        /* \"#utility.yul\":1826:1844   */\n      tag_152\n      tag_97\n      jump\t// in\n    tag_152:\n        /* \"#utility.yul\":1790:1846   */\n    tag_151:\n        /* \"#utility.yul\":1864:1893   */\n      tag_153\n        /* \"#utility.yul\":1886:1892   */\n      dup3\n        /* \"#utility.yul\":1864:1893   */\n      tag_96\n      jump\t// in\n    tag_153:\n        /* \"#utility.yul\":1856:1893   */\n      swap1\n      pop\n        /* \"#utility.yul\":1948:1952   */\n      0x20\n        /* \"#utility.yul\":1942:1946   */\n      dup2\n        /* \"#utility.yul\":1938:1953   */\n      add\n        /* \"#utility.yul\":1930:1953   */\n      swap1\n      pop\n        /* \"#utility.yul\":1652:1960   */\n      swap2\n      swap1\n      pop\n      jump\t// out\n        /* \"#utility.yul\":1966:2112   */\n    tag_101:\n        /* \"#utility.yul\":2063:2069   */\n      dup3\n        /* \"#utility.yul\":2058:2061   */\n      dup2\n        /* \"#utility.yul\":2053:2056   */\n      dup4\n        /* \"#utility.yul\":2040:2070   */\n      calldatacopy\n        /* \"#utility.yul\":2104:2105   */\n      0x00\n        /* \"#utility.yul\":2095:2101   */\n      dup4\n        /* \"#utility.yul\":2090:2093   */\n      dup4\n        /* \"#utility.yul\":2086:2102   */\n      add\n        /* \"#utility.yul\":2079:2106   */\n      mstore\n        /* \"#utility.yul\":1966:2112   */\n      pop\n      pop\n      pop\n      jump\t// out\n        /* \"#utility.yul\":2118:2543   */\n    tag_102:\n        /* \"#utility.yul\":2196:2201   */\n      0x00\n        /* \"#utility.yul\":2221:2287   */\n      tag_156\n        /* \"#utility.yul\":2237:2286   */\n      tag_157\n        /* \"#utility.yul\":2279:2285   */\n      dup5\n        /* \"#utility.yul\":2237:2286   */\n      tag_100\n      jump\t// in\n    tag_157:\n        /* \"#utility.yul\":2221:2287   */\n      tag_99\n      jump\t// in\n    tag_156:\n        /* \"#utility.yul\":2212:2287   */\n      swap1\n      pop\n        /* \"#utility.yul\":2310:2316   */\n      dup3\n        /* \"#utility.yul\":2303:2308   */\n      dup2\n        /* \"#utility.yul\":2296:2317   */\n      mstore\n        /* \"#utility.yul\":2348:2352   */\n      0x20\n        /* \"#utility.yul\":2341:2346   */\n      dup2\n        /* \"#utility.yul\":2337:2353   */\n      add\n        /* \"#utility.yul\":2386:2389   */\n      dup5\n        /* \"#utility.yul\":2377:2383   */\n      dup5\n        /* \"#utility.yul\":2372:2375   */\n      dup5\n        /* \"#utility.yul\":2368:2384   */\n      add\n        /* \"#utility.yul\":2365:2390   */\n      gt\n        /* \"#utility.yul\":2362:2474   */\n      iszero\n      tag_158\n      jumpi\n        /* \"#utility.yul\":2393:2472   */\n      tag_159\n      tag_95\n      jump\t// in\n    tag_159:\n        /* \"#utility.yul\":2362:2474   */\n    tag_158:\n        /* \"#utility.yul\":2483:2537   */\n      tag_160\n        /* \"#utility.yul\":2530:2536   */\n      dup5\n        /* \"#utility.yul\":2525:2528   */\n      dup3\n        /* \"#utility.yul\":2520:2523   */\n      dup6\n        /* \"#utility.yul\":2483:2537   */\n      tag_101\n      jump\t// in\n    tag_160:\n        /* \"#utility.yul\":2202:2543   */\n      pop\n        /* \"#utility.yul\":2118:2543   */\n      swap4\n      swap3\n      pop\n      pop\n      pop\n      jump\t// out\n        /* \"#utility.yul\":2563:2903   */\n    tag_103:\n        /* \"#utility.yul\":2619:2624   */\n      0x00\n        /* \"#utility.yul\":2668:2671   */\n      dup3\n        /* \"#utility.yul\":2661:2665   */\n      0x1f\n        /* \"#utility.yul\":2653:2659   */\n      dup4\n        /* \"#utility.yul\":2649:2666   */\n      add\n        /* \"#utility.yul\":2645:2672   */\n      slt\n        /* \"#utility.yul\":2635:2757   */\n      tag_162\n      jumpi\n        /* \"#utility.yul\":2676:2755   */\n      tag_163\n      tag_94\n      jump\t// in\n    tag_163:\n        /* \"#utility.yul\":2635:2757   */\n    tag_162:\n        /* \"#utility.yul\":2793:2799   */\n      dup2\n        /* \"#utility.yul\":2780:2800   */\n      calldataload\n        /* \"#utility.yul\":2818:2897   */\n      tag_164\n        /* \"#utility.yul\":2893:2896   */\n      dup5\n        /* \"#utility.yul\":2885:2891   */\n      dup3\n        /* \"#utility.yul\":2878:2882   */\n      0x20\n        /* \"#utility.yul\":2870:2876   */\n      dup7\n        /* \"#utility.yul\":2866:2883   */\n      add\n        /* \"#utility.yul\":2818:2897   */\n      tag_102\n      jump\t// in\n    tag_164:\n        /* \"#utility.yul\":2809:2897   */\n      swap2\n      pop\n        /* \"#utility.yul\":2625:2903   */\n      pop\n        /* \"#utility.yul\":2563:2903   */\n      swap3\n      swap2\n      pop\n      pop\n      jump\t// out\n        /* \"#utility.yul\":2909:3022   */\n    tag_104:\n        /* \"#utility.yul\":2996:2997   */\n      0x03\n        /* \"#utility.yul\":2989:2994   */\n      dup2\n        /* \"#utility.yul\":2986:2998   */\n      lt\n        /* \"#utility.yul\":2976:3016   */\n      tag_166\n      jumpi\n        /* \"#utility.yul\":3012:3013   */\n      0x00\n        /* \"#utility.yul\":3009:3010   */\n      dup1\n        /* \"#utility.yul\":3002:3014   */\n      revert\n        /* \"#utility.yul\":2976:3016   */\n    tag_166:\n        /* \"#utility.yul\":2909:3022   */\n      pop\n      jump\t// out\n        /* \"#utility.yul\":3028:3195   */\n    tag_105:\n        /* \"#utility.yul\":3088:3093   */\n      0x00\n        /* \"#utility.yul\":3126:3132   */\n      dup2\n        /* \"#utility.yul\":3113:3133   */\n      calldataload\n        /* \"#utility.yul\":3104:3133   */\n      swap1\n      pop\n        /* \"#utility.yul\":3142:3189   */\n      tag_168\n        /* \"#utility.yul\":3183:3188   */\n      dup2\n        /* \"#utility.yul\":3142:3189   */\n      tag_104\n      jump\t// in\n    tag_168:\n        /* \"#utility.yul\":3028:3195   */\n      swap3\n      swap2\n      pop\n      pop\n      jump\t// out\n        /* \"#utility.yul\":3201:5006   */\n    tag_8:\n        /* \"#utility.yul\":3359:3365   */\n      0x00\n        /* \"#utility.yul\":3367:3373   */\n      dup1\n        /* \"#utility.yul\":3375:3381   */\n      0x00\n        /* \"#utility.yul\":3383:3389   */\n      dup1\n        /* \"#utility.yul\":3391:3397   */\n      0x00\n        /* \"#utility.yul\":3399:3405   */\n      dup1\n        /* \"#utility.yul\":3448:3451   */\n      0xc0\n        /* \"#utility.yul\":3436:3445   */\n      dup8\n        /* \"#utility.yul\":3427:3434   */\n      dup10\n        /* \"#utility.yul\":3423:3446   */\n      sub\n        /* \"#utility.yul\":3419:3452   */\n      slt\n        /* \"#utility.yul\":3416:3536   */\n      iszero\n      tag_170\n      jumpi\n        /* \"#utility.yul\":3455:3534   */\n      tag_171\n      tag_89\n      jump\t// in\n    tag_171:\n        /* \"#utility.yul\":3416:3536   */\n    tag_170:\n        /* \"#utility.yul\":3575:3576   */\n      0x00\n        /* \"#utility.yul\":3600:3653   */\n      tag_172\n        /* \"#utility.yul\":3645:3652   */\n      dup10\n        /* \"#utility.yul\":3636:3642   */\n      dup3\n        /* \"#utility.yul\":3625:3634   */\n      dup11\n        /* \"#utility.yul\":3621:3643   */\n      add\n        /* \"#utility.yul\":3600:3653   */\n      tag_93\n      jump\t// in\n    tag_172:\n        /* \"#utility.yul\":3590:3653   */\n      swap7\n      pop\n        /* \"#utility.yul\":3546:3663   */\n      pop\n        /* \"#utility.yul\":3730:3732   */\n      0x20\n        /* \"#utility.yul\":3719:3728   */\n      dup8\n        /* \"#utility.yul\":3715:3733   */\n      add\n        /* \"#utility.yul\":3702:3734   */\n      calldataload\n        /* \"#utility.yul\":3761:3779   */\n      0xffffffffffffffff\n        /* \"#utility.yul\":3753:3759   */\n      dup2\n        /* \"#utility.yul\":3750:3780   */\n      gt\n        /* \"#utility.yul\":3747:3864   */\n      iszero\n      tag_173\n      jumpi\n        /* \"#utility.yul\":3783:3862   */\n      tag_174\n      tag_90\n      jump\t// in\n    tag_174:\n        /* \"#utility.yul\":3747:3864   */\n    tag_173:\n        /* \"#utility.yul\":3888:3951   */\n      tag_175\n        /* \"#utility.yul\":3943:3950   */\n      dup10\n        /* \"#utility.yul\":3934:3940   */\n      dup3\n        /* \"#utility.yul\":3923:3932   */\n      dup11\n        /* \"#utility.yul\":3919:3941   */\n      add\n        /* \"#utility.yul\":3888:3951   */\n      tag_103\n      jump\t// in\n    tag_175:\n        /* \"#utility.yul\":3878:3951   */\n      swap6\n      pop\n        /* \"#utility.yul\":3673:3961   */\n      pop\n        /* \"#utility.yul\":4000:4002   */\n      0x40\n        /* \"#utility.yul\":4026:4093   */\n      tag_176\n        /* \"#utility.yul\":4085:4092   */\n      dup10\n        /* \"#utility.yul\":4076:4082   */\n      dup3\n        /* \"#utility.yul\":4065:4074   */\n      dup11\n        /* \"#utility.yul\":4061:4083   */\n      add\n        /* \"#utility.yul\":4026:4093   */\n      tag_105\n      jump\t// in\n    tag_176:\n        /* \"#utility.yul\":4016:4093   */\n      swap5\n      pop\n        /* \"#utility.yul\":3971:4103   */\n      pop\n        /* \"#utility.yul\":4170:4172   */\n      0x60\n        /* \"#utility.yul\":4159:4168   */\n      dup8\n        /* \"#utility.yul\":4155:4173   */\n      add\n        /* \"#utility.yul\":4142:4174   */\n      calldataload\n        /* \"#utility.yul\":4201:4219   */\n      0xffffffffffffffff\n        /* \"#utility.yul\":4193:4199   */\n      dup2\n        /* \"#utility.yul\":4190:4220   */\n      gt\n        /* \"#utility.yul\":4187:4304   */\n      iszero\n      tag_177\n      jumpi\n        /* \"#utility.yul\":4223:4302   */\n      tag_178\n      tag_90\n      jump\t// in\n    tag_178:\n        /* \"#utility.yul\":4187:4304   */\n    tag_177:\n        /* \"#utility.yul\":4328:4391   */\n      tag_179\n        /* \"#utility.yul\":4383:4390   */\n      dup10\n        /* \"#utility.yul\":4374:4380   */\n      dup3\n        /* \"#utility.yul\":4363:4372   */\n      dup11\n        /* \"#utility.yul\":4359:4381   */\n      add\n        /* \"#utility.yul\":4328:4391   */\n      tag_103\n      jump\t// in\n    tag_179:\n        /* \"#utility.yul\":4318:4391   */\n      swap4\n      pop\n        /* \"#utility.yul\":4113:4401   */\n      pop\n        /* \"#utility.yul\":4468:4471   */\n      0x80\n        /* \"#utility.yul\":4457:4466   */\n      dup8\n        /* \"#utility.yul\":4453:4472   */\n      add\n        /* \"#utility.yul\":4440:4473   */\n      calldataload\n        /* \"#utility.yul\":4500:4518   */\n      0xffffffffffffffff\n        /* \"#utility.yul\":4492:4498   */\n      dup2\n        /* \"#utility.yul\":4489:4519   */\n      gt\n        /* \"#utility.yul\":4486:4603   */\n      iszero\n      tag_180\n      jumpi\n        /* \"#utility.yul\":4522:4601   */\n      tag_181\n      tag_90\n      jump\t// in\n    tag_181:\n        /* \"#utility.yul\":4486:4603   */\n    tag_180:\n        /* \"#utility.yul\":4627:4690   */\n      tag_182\n        /* \"#utility.yul\":4682:4689   */\n      dup10\n        /* \"#utility.yul\":4673:4679   */\n      dup3\n        /* \"#utility.yul\":4662:4671   */\n      dup11\n        /* \"#utility.yul\":4658:4680   */\n      add\n        /* \"#utility.yul\":4627:4690   */\n      tag_103\n      jump\t// in\n    tag_182:\n        /* \"#utility.yul\":4617:4690   */\n      swap3\n      pop\n        /* \"#utility.yul\":4411:4700   */\n      pop\n        /* \"#utility.yul\":4767:4770   */\n      0xa0\n        /* \"#utility.yul\":4756:4765   */\n      dup8\n        /* \"#utility.yul\":4752:4771   */\n      add\n        /* \"#utility.yul\":4739:4772   */\n      calldataload\n        /* \"#utility.yul\":4799:4817   */\n      0xffffffffffffffff\n        /* \"#utility.yul\":4791:4797   */\n      dup2\n        /* \"#utility.yul\":4788:4818   */\n      gt\n        /* \"#utility.yul\":4785:4902   */\n      iszero\n      tag_183\n      jumpi\n        /* \"#utility.yul\":4821:4900   */\n      tag_184\n      tag_90\n      jump\t// in\n    tag_184:\n        /* \"#utility.yul\":4785:4902   */\n    tag_183:\n        /* \"#utility.yul\":4926:4989   */\n      tag_185\n        /* \"#utility.yul\":4981:4988   */\n      dup10\n        /* \"#utility.yul\":4972:4978   */\n      dup3\n        /* \"#utility.yul\":4961:4970   */\n      dup11\n        /* \"#utility.yul\":4957:4979   */\n      add\n        /* \"#utility.yul\":4926:4989   */\n      tag_103\n      jump\t// in\n    tag_185:\n        /* \"#utility.yul\":4916:4989   */\n      swap2\n      pop\n        /* \"#utility.yul\":4710:4999   */\n      pop\n        /* \"#utility.yul\":3201:5006   */\n      swap3\n      swap6\n      pop\n      swap3\n      swap6\n      pop\n      swap3\n      swap6\n      jump\t// out\n        /* \"#utility.yul\":5012:5111   */\n    tag_106:\n        /* \"#utility.yul\":5064:5070   */\n      0x00\n        /* \"#utility.yul\":5098:5103   */\n      dup2\n        /* \"#utility.yul\":5092:5104   */\n      mload\n        /* \"#utility.yul\":5082:5104   */\n      swap1\n      pop\n        /* \"#utility.yul\":5012:5111   */\n      swap2\n      swap1\n      pop\n      jump\t// out\n        /* \"#utility.yul\":5117:5286   */\n    tag_107:\n        /* \"#utility.yul\":5201:5212   */\n      0x00\n        /* \"#utility.yul\":5235:5241   */\n      dup3\n        /* \"#utility.yul\":5230:5233   */\n      dup3\n        /* \"#utility.yul\":5223:5242   */\n      mstore\n        /* \"#utility.yul\":5275:5279   */\n      0x20\n        /* \"#utility.yul\":5270:5273   */\n      dup3\n        /* \"#utility.yul\":5266:5280   */\n      add\n        /* \"#utility.yul\":5251:5280   */\n      swap1\n      pop\n        /* \"#utility.yul\":5117:5286   */\n      swap3\n      swap2\n      pop\n      pop\n      jump\t// out\n        /* \"#utility.yul\":5292:5538   */\n    tag_108:\n        /* \"#utility.yul\":5373:5374   */\n      0x00\n        /* \"#utility.yul\":5383:5496   */\n    tag_189:\n        /* \"#utility.yul\":5397:5403   */\n      dup4\n        /* \"#utility.yul\":5394:5395   */\n      dup2\n        /* \"#utility.yul\":5391:5404   */\n      lt\n        /* \"#utility.yul\":5383:5496   */\n      iszero\n      tag_191\n      jumpi\n        /* \"#utility.yul\":5482:5483   */\n      dup1\n        /* \"#utility.yul\":5477:5480   */\n      dup3\n        /* \"#utility.yul\":5473:5484   */\n      add\n        /* \"#utility.yul\":5467:5485   */\n      mload\n        /* \"#utility.yul\":5463:5464   */\n      dup2\n        /* \"#utility.yul\":5458:5461   */\n      dup5\n        /* \"#utility.yul\":5454:5465   */\n      add\n        /* \"#utility.yul\":5447:5486   */\n      mstore\n        /* \"#utility.yul\":5419:5421   */\n      0x20\n        /* \"#utility.yul\":5416:5417   */\n      dup2\n        /* \"#utility.yul\":5412:5422   */\n      add\n        /* \"#utility.yul\":5407:5422   */\n      swap1\n      pop\n        /* \"#utility.yul\":5383:5496   */\n      jump(tag_189)\n    tag_191:\n        /* \"#utility.yul\":5530:5531   */\n      0x00\n        /* \"#utility.yul\":5521:5527   */\n      dup5\n        /* \"#utility.yul\":5516:5519   */\n      dup5\n        /* \"#utility.yul\":5512:5528   */\n      add\n        /* \"#utility.yul\":5505:5532   */\n      mstore\n        /* \"#utility.yul\":5354:5538   */\n      pop\n        /* \"#utility.yul\":5292:5538   */\n      pop\n      pop\n      pop\n      jump\t// out\n        /* \"#utility.yul\":5544:5921   */\n    tag_109:\n        /* \"#utility.yul\":5632:5635   */\n      0x00\n        /* \"#utility.yul\":5660:5699   */\n      tag_193\n        /* \"#utility.yul\":5693:5698   */\n      dup3\n        /* \"#utility.yul\":5660:5699   */\n      tag_106\n      jump\t// in\n    tag_193:\n        /* \"#utility.yul\":5715:5786   */\n      tag_194\n        /* \"#utility.yul\":5779:5785   */\n      dup2\n        /* \"#utility.yul\":5774:5777   */\n      dup6\n        /* \"#utility.yul\":5715:5786   */\n      tag_107\n      jump\t// in\n    tag_194:\n        /* \"#utility.yul\":5708:5786   */\n      swap4\n      pop\n        /* \"#utility.yul\":5795:5860   */\n      tag_195\n        /* \"#utility.yul\":5853:5859   */\n      dup2\n        /* \"#utility.yul\":5848:5851   */\n      dup6\n        /* \"#utility.yul\":5841:5845   */\n      0x20\n        /* \"#utility.yul\":5834:5839   */\n      dup7\n        /* \"#utility.yul\":5830:5846   */\n      add\n        /* \"#utility.yul\":5795:5860   */\n      tag_108\n      jump\t// in\n    tag_195:\n        /* \"#utility.yul\":5885:5914   */\n      tag_196\n        /* \"#utility.yul\":5907:5913   */\n      dup2\n        /* \"#utility.yul\":5885:5914   */\n      tag_96\n      jump\t// in\n    tag_196:\n        /* \"#utility.yul\":5880:5883   */\n      dup5\n        /* \"#utility.yul\":5876:5915   */\n      add\n        /* \"#utility.yul\":5869:5915   */\n      swap2\n      pop\n        /* \"#utility.yul\":5636:5921   */\n      pop\n        /* \"#utility.yul\":5544:5921   */\n      swap3\n      swap2\n      pop\n      pop\n      jump\t// out\n        /* \"#utility.yul\":5927:6240   */\n    tag_11:\n        /* \"#utility.yul\":6040:6044   */\n      0x00\n        /* \"#utility.yul\":6078:6080   */\n      0x20\n        /* \"#utility.yul\":6067:6076   */\n      dup3\n        /* \"#utility.yul\":6063:6081   */\n      add\n        /* \"#utility.yul\":6055:6081   */\n      swap1\n      pop\n        /* \"#utility.yul\":6127:6136   */\n      dup2\n        /* \"#utility.yul\":6121:6125   */\n      dup2\n        /* \"#utility.yul\":6117:6137   */\n      sub\n        /* \"#utility.yul\":6113:6114   */\n      0x00\n        /* \"#utility.yul\":6102:6111   */\n      dup4\n        /* \"#utility.yul\":6098:6115   */\n      add\n        /* \"#utility.yul\":6091:6138   */\n      mstore\n        /* \"#utility.yul\":6155:6233   */\n      tag_198\n        /* \"#utility.yul\":6228:6232   */\n      dup2\n        /* \"#utility.yul\":6219:6225   */\n      dup5\n        /* \"#utility.yul\":6155:6233   */\n      tag_109\n      jump\t// in\n    tag_198:\n        /* \"#utility.yul\":6147:6233   */\n      swap1\n      pop\n        /* \"#utility.yul\":5927:6240   */\n      swap3\n      swap2\n      pop\n      pop\n      jump\t// out\n        /* \"#utility.yul\":6246:7225   */\n    tag_14:\n        /* \"#utility.yul\":6343:6349   */\n      0x00\n        /* \"#utility.yul\":6351:6357   */\n      dup1\n        /* \"#utility.yul\":6359:6365   */\n      0x00\n        /* \"#utility.yul\":6408:6410   */\n      0x60\n        /* \"#utility.yul\":6396:6405   */\n      dup5\n        /* \"#utility.yul\":6387:6394   */\n      dup7\n        /* \"#utility.yul\":6383:6406   */\n      sub\n        /* \"#utility.yul\":6379:6411   */\n      slt\n        /* \"#utility.yul\":6376:6495   */\n      iszero\n      tag_200\n      jumpi\n        /* \"#utility.yul\":6414:6493   */\n      tag_201\n      tag_89\n      jump\t// in\n    tag_201:\n        /* \"#utility.yul\":6376:6495   */\n    tag_200:\n        /* \"#utility.yul\":6534:6535   */\n      0x00\n        /* \"#utility.yul\":6559:6612   */\n      tag_202\n        /* \"#utility.yul\":6604:6611   */\n      dup7\n        /* \"#utility.yul\":6595:6601   */\n      dup3\n        /* \"#utility.yul\":6584:6593   */\n      dup8\n        /* \"#utility.yul\":6580:6602   */\n      add\n        /* \"#utility.yul\":6559:6612   */\n      tag_93\n      jump\t// in\n    tag_202:\n        /* \"#utility.yul\":6549:6612   */\n      swap4\n      pop\n        /* \"#utility.yul\":6505:6622   */\n      pop\n        /* \"#utility.yul\":6689:6691   */\n      0x20\n        /* \"#utility.yul\":6678:6687   */\n      dup5\n        /* \"#utility.yul\":6674:6692   */\n      add\n        /* \"#utility.yul\":6661:6693   */\n      calldataload\n        /* \"#utility.yul\":6720:6738   */\n      0xffffffffffffffff\n        /* \"#utility.yul\":6712:6718   */\n      dup2\n        /* \"#utility.yul\":6709:6739   */\n      gt\n        /* \"#utility.yul\":6706:6823   */\n      iszero\n      tag_203\n      jumpi\n        /* \"#utility.yul\":6742:6821   */\n      tag_204\n      tag_90\n      jump\t// in\n    tag_204:\n        /* \"#utility.yul\":6706:6823   */\n    tag_203:\n        /* \"#utility.yul\":6847:6910   */\n      tag_205\n        /* \"#utility.yul\":6902:6909   */\n      dup7\n        /* \"#utility.yul\":6893:6899   */\n      dup3\n        /* \"#utility.yul\":6882:6891   */\n      dup8\n        /* \"#utility.yul\":6878:6900   */\n      add\n        /* \"#utility.yul\":6847:6910   */\n      tag_103\n      jump\t// in\n    tag_205:\n        /* \"#utility.yul\":6837:6910   */\n      swap3\n      pop\n        /* \"#utility.yul\":6632:6920   */\n      pop\n        /* \"#utility.yul\":6987:6989   */\n      0x40\n        /* \"#utility.yul\":6976:6985   */\n      dup5\n        /* \"#utility.yul\":6972:6990   */\n      add\n        /* \"#utility.yul\":6959:6991   */\n      calldataload\n        /* \"#utility.yul\":7018:7036   */\n      0xffffffffffffffff\n        /* \"#utility.yul\":7010:7016   */\n      dup2\n        /* \"#utility.yul\":7007:7037   */\n      gt\n        /* \"#utility.yul\":7004:7121   */\n      iszero\n      tag_206\n      jumpi\n        /* \"#utility.yul\":7040:7119   */\n      tag_207\n      tag_90\n      jump\t// in\n    tag_207:\n        /* \"#utility.yul\":7004:7121   */\n    tag_206:\n        /* \"#utility.yul\":7145:7208   */\n      tag_208\n        /* \"#utility.yul\":7200:7207   */\n      dup7\n        /* \"#utility.yul\":7191:7197   */\n      dup3\n        /* \"#utility.yul\":7180:7189   */\n      dup8\n        /* \"#utility.yul\":7176:7198   */\n      add\n        /* \"#utility.yul\":7145:7208   */\n      tag_103\n      jump\t// in\n    tag_208:\n        /* \"#utility.yul\":7135:7208   */\n      swap2\n      pop\n        /* \"#utility.yul\":6930:7218   */\n      pop\n        /* \"#utility.yul\":6246:7225   */\n      swap3\n      pop\n      swap3\n      pop\n      swap3\n      jump\t// out\n        /* \"#utility.yul\":7231:7560   */\n    tag_19:\n        /* \"#utility.yul\":7290:7296   */\n      0x00\n        /* \"#utility.yul\":7339:7341   */\n      0x20\n        /* \"#utility.yul\":7327:7336   */\n      dup3\n        /* \"#utility.yul\":7318:7325   */\n      dup5\n        /* \"#utility.yul\":7314:7337   */\n      sub\n        /* \"#utility.yul\":7310:7342   */\n      slt\n        /* \"#utility.yul\":7307:7426   */\n      iszero\n      tag_210\n      jumpi\n        /* \"#utility.yul\":7345:7424   */\n      tag_211\n      tag_89\n      jump\t// in\n    tag_211:\n        /* \"#utility.yul\":7307:7426   */\n    tag_210:\n        /* \"#utility.yul\":7465:7466   */\n      0x00\n        /* \"#utility.yul\":7490:7543   */\n      tag_212\n        /* \"#utility.yul\":7535:7542   */\n      dup5\n        /* \"#utility.yul\":7526:7532   */\n      dup3\n        /* \"#utility.yul\":7515:7524   */\n      dup6\n        /* \"#utility.yul\":7511:7533   */\n      add\n        /* \"#utility.yul\":7490:7543   */\n      tag_93\n      jump\t// in\n    tag_212:\n        /* \"#utility.yul\":7480:7543   */\n      swap2\n      pop\n        /* \"#utility.yul\":7436:7553   */\n      pop\n        /* \"#utility.yul\":7231:7560   */\n      swap3\n      swap2\n      pop\n      pop\n      jump\t// out\n        /* \"#utility.yul\":7566:7684   */\n    tag_110:\n        /* \"#utility.yul\":7653:7677   */\n      tag_214\n        /* \"#utility.yul\":7671:7676   */\n      dup2\n        /* \"#utility.yul\":7653:7677   */\n      tag_91\n      jump\t// in\n    tag_214:\n        /* \"#utility.yul\":7648:7651   */\n      dup3\n        /* \"#utility.yul\":7641:7678   */\n      mstore\n        /* \"#utility.yul\":7566:7684   */\n      pop\n      pop\n      jump\t// out\n        /* \"#utility.yul\":7690:8920   */\n    tag_22:\n        /* \"#utility.yul\":8023:8027   */\n      0x00\n        /* \"#utility.yul\":8061:8064   */\n      0xc0\n        /* \"#utility.yul\":8050:8059   */\n      dup3\n        /* \"#utility.yul\":8046:8065   */\n      add\n        /* \"#utility.yul\":8038:8065   */\n      swap1\n      pop\n        /* \"#utility.yul\":8075:8146   */\n      tag_216\n        /* \"#utility.yul\":8143:8144   */\n      0x00\n        /* \"#utility.yul\":8132:8141   */\n      dup4\n        /* \"#utility.yul\":8128:8145   */\n      add\n        /* \"#utility.yul\":8119:8125   */\n      dup10\n        /* \"#utility.yul\":8075:8146   */\n      tag_110\n      jump\t// in\n    tag_216:\n        /* \"#utility.yul\":8193:8202   */\n      dup2\n        /* \"#utility.yul\":8187:8191   */\n      dup2\n        /* \"#utility.yul\":8183:8203   */\n      sub\n        /* \"#utility.yul\":8178:8180   */\n      0x20\n        /* \"#utility.yul\":8167:8176   */\n      dup4\n        /* \"#utility.yul\":8163:8181   */\n      add\n        /* \"#utility.yul\":8156:8204   */\n      mstore\n        /* \"#utility.yul\":8221:8299   */\n      tag_217\n        /* \"#utility.yul\":8294:8298   */\n      dup2\n        /* \"#utility.yul\":8285:8291   */\n      dup9\n        /* \"#utility.yul\":8221:8299   */\n      tag_109\n      jump\t// in\n    tag_217:\n        /* \"#utility.yul\":8213:8299   */\n      swap1\n      pop\n        /* \"#utility.yul\":8346:8355   */\n      dup2\n        /* \"#utility.yul\":8340:8344   */\n      dup2\n        /* \"#utility.yul\":8336:8356   */\n      sub\n        /* \"#utility.yul\":8331:8333   */\n      0x40\n        /* \"#utility.yul\":8320:8329   */\n      dup4\n        /* \"#utility.yul\":8316:8334   */\n      add\n        /* \"#utility.yul\":8309:8357   */\n      mstore\n        /* \"#utility.yul\":8374:8452   */\n      tag_218\n        /* \"#utility.yul\":8447:8451   */\n      dup2\n        /* \"#utility.yul\":8438:8444   */\n      dup8\n        /* \"#utility.yul\":8374:8452   */\n      tag_109\n      jump\t// in\n    tag_218:\n        /* \"#utility.yul\":8366:8452   */\n      swap1\n      pop\n        /* \"#utility.yul\":8499:8508   */\n      dup2\n        /* \"#utility.yul\":8493:8497   */\n      dup2\n        /* \"#utility.yul\":8489:8509   */\n      sub\n        /* \"#utility.yul\":8484:8486   */\n      0x60\n        /* \"#utility.yul\":8473:8482   */\n      dup4\n        /* \"#utility.yul\":8469:8487   */\n      add\n        /* \"#utility.yul\":8462:8510   */\n      mstore\n        /* \"#utility.yul\":8527:8605   */\n      tag_219\n        /* \"#utility.yul\":8600:8604   */\n      dup2\n        /* \"#utility.yul\":8591:8597   */\n      dup7\n        /* \"#utility.yul\":8527:8605   */\n      tag_109\n      jump\t// in\n    tag_219:\n        /* \"#utility.yul\":8519:8605   */\n      swap1\n      pop\n        /* \"#utility.yul\":8653:8662   */\n      dup2\n        /* \"#utility.yul\":8647:8651   */\n      dup2\n        /* \"#utility.yul\":8643:8663   */\n      sub\n        /* \"#utility.yul\":8637:8640   */\n      0x80\n        /* \"#utility.yul\":8626:8635   */\n      dup4\n        /* \"#utility.yul\":8622:8641   */\n      add\n        /* \"#utility.yul\":8615:8664   */\n      mstore\n        /* \"#utility.yul\":8681:8759   */\n      tag_220\n        /* \"#utility.yul\":8754:8758   */\n      dup2\n        /* \"#utility.yul\":8745:8751   */\n      dup6\n        /* \"#utility.yul\":8681:8759   */\n      tag_109\n      jump\t// in\n    tag_220:\n        /* \"#utility.yul\":8673:8759   */\n      swap1\n      pop\n        /* \"#utility.yul\":8807:8816   */\n      dup2\n        /* \"#utility.yul\":8801:8805   */\n      dup2\n        /* \"#utility.yul\":8797:8817   */\n      sub\n        /* \"#utility.yul\":8791:8794   */\n      0xa0\n        /* \"#utility.yul\":8780:8789   */\n      dup4\n        /* \"#utility.yul\":8776:8795   */\n      add\n        /* \"#utility.yul\":8769:8818   */\n      mstore\n        /* \"#utility.yul\":8835:8913   */\n      tag_221\n        /* \"#utility.yul\":8908:8912   */\n      dup2\n        /* \"#utility.yul\":8899:8905   */\n      dup5\n        /* \"#utility.yul\":8835:8913   */\n      tag_109\n      jump\t// in\n    tag_221:\n        /* \"#utility.yul\":8827:8913   */\n      swap1\n      pop\n        /* \"#utility.yul\":7690:8920   */\n      swap8\n      swap7\n      pop\n      pop\n      pop\n      pop\n      pop\n      pop\n      pop\n      jump\t// out\n        /* \"#utility.yul\":8926:9106   */\n    tag_28:\n        /* \"#utility.yul\":8974:9051   */\n      0x4e487b7100000000000000000000000000000000000000000000000000000000\n        /* \"#utility.yul\":8971:8972   */\n      0x00\n        /* \"#utility.yul\":8964:9052   */\n      mstore\n        /* \"#utility.yul\":9071:9075   */\n      0x21\n        /* \"#utility.yul\":9068:9069   */\n      0x04\n        /* \"#utility.yul\":9061:9076   */\n      mstore\n        /* \"#utility.yul\":9095:9099   */\n      0x24\n        /* \"#utility.yul\":9092:9093   */\n      0x00\n        /* \"#utility.yul\":9085:9100   */\n      revert\n        /* \"#utility.yul\":9112:9292   */\n    tag_111:\n        /* \"#utility.yul\":9160:9237   */\n      0x4e487b7100000000000000000000000000000000000000000000000000000000\n        /* \"#utility.yul\":9157:9158   */\n      0x00\n        /* \"#utility.yul\":9150:9238   */\n      mstore\n        /* \"#utility.yul\":9257:9261   */\n      0x22\n        /* \"#utility.yul\":9254:9255   */\n      0x04\n        /* \"#utility.yul\":9247:9262   */\n      mstore\n        /* \"#utility.yul\":9281:9285   */\n      0x24\n        /* \"#utility.yul\":9278:9279   */\n      0x00\n        /* \"#utility.yul\":9271:9286   */\n      revert\n        /* \"#utility.yul\":9298:9618   */\n    tag_46:\n        /* \"#utility.yul\":9342:9348   */\n      0x00\n        /* \"#utility.yul\":9379:9380   */\n      0x02\n        /* \"#utility.yul\":9373:9377   */\n      dup3\n        /* \"#utility.yul\":9369:9381   */\n      div\n        /* \"#utility.yul\":9359:9381   */\n      swap1\n      pop\n        /* \"#utility.yul\":9426:9427   */\n      0x01\n        /* \"#utility.yul\":9420:9424   */\n      dup3\n        /* \"#utility.yul\":9416:9428   */\n      and\n        /* \"#utility.yul\":9447:9465   */\n      dup1\n        /* \"#utility.yul\":9437:9518   */\n      tag_225\n      jumpi\n        /* \"#utility.yul\":9503:9507   */\n      0x7f\n        /* \"#utility.yul\":9495:9501   */\n      dup3\n        /* \"#utility.yul\":9491:9508   */\n      and\n        /* \"#utility.yul\":9481:9508   */\n      swap2\n      pop\n        /* \"#utility.yul\":9437:9518   */\n    tag_225:\n        /* \"#utility.yul\":9565:9567   */\n      0x20\n        /* \"#utility.yul\":9557:9563   */\n      dup3\n        /* \"#utility.yul\":9554:9568   */\n      lt\n        /* \"#utility.yul\":9534:9552   */\n      dup2\n        /* \"#utility.yul\":9531:9569   */\n      sub\n        /* \"#utility.yul\":9528:9612   */\n      tag_226\n      jumpi\n        /* \"#utility.yul\":9584:9602   */\n      tag_227\n      tag_111\n      jump\t// in\n    tag_227:\n        /* \"#utility.yul\":9528:9612   */\n    tag_226:\n        /* \"#utility.yul\":9349:9618   */\n      pop\n        /* \"#utility.yul\":9298:9618   */\n      swap2\n      swap1\n      pop\n      jump\t// out\n        /* \"#utility.yul\":9624:9765   */\n    tag_112:\n        /* \"#utility.yul\":9673:9677   */\n      0x00\n        /* \"#utility.yul\":9696:9699   */\n      dup2\n        /* \"#utility.yul\":9688:9699   */\n      swap1\n      pop\n        /* \"#utility.yul\":9719:9722   */\n      dup2\n        /* \"#utility.yul\":9716:9717   */\n      0x00\n        /* \"#utility.yul\":9709:9723   */\n      mstore\n        /* \"#utility.yul\":9753:9757   */\n      0x20\n        /* \"#utility.yul\":9750:9751   */\n      0x00\n        /* \"#utility.yul\":9740:9758   */\n      keccak256\n        /* \"#utility.yul\":9732:9758   */\n      swap1\n      pop\n        /* \"#utility.yul\":9624:9765   */\n      swap2\n      swap1\n      pop\n      jump\t// out\n        /* \"#utility.yul\":9771:9864   */\n    tag_113:\n        /* \"#utility.yul\":9808:9814   */\n      0x00\n        /* \"#utility.yul\":9855:9857   */\n      0x20\n        /* \"#utility.yul\":9850:9852   */\n      0x1f\n        /* \"#utility.yul\":9843:9848   */\n      dup4\n        /* \"#utility.yul\":9839:9853   */\n      add\n        /* \"#utility.yul\":9835:9858   */\n      div\n        /* \"#utility.yul\":9825:9858   */\n      swap1\n      pop\n        /* \"#utility.yul\":9771:9864   */\n      swap2\n      swap1\n      pop\n      jump\t// out\n        /* \"#utility.yul\":9870:9977   */\n    tag_114:\n        /* \"#utility.yul\":9914:9922   */\n      0x00\n        /* \"#utility.yul\":9964:9969   */\n      dup3\n        /* \"#utility.yul\":9958:9962   */\n      dup3\n        /* \"#utility.yul\":9954:9970   */\n      shl\n        /* \"#utility.yul\":9933:9970   */\n      swap1\n      pop\n        /* \"#utility.yul\":9870:9977   */\n      swap3\n      swap2\n      pop\n      pop\n      jump\t// out\n        /* \"#utility.yul\":9983:10376   */\n    tag_115:\n        /* \"#utility.yul\":10052:10058   */\n      0x00\n        /* \"#utility.yul\":10102:10103   */\n      0x08\n        /* \"#utility.yul\":10090:10100   */\n      dup4\n        /* \"#utility.yul\":10086:10104   */\n      mul\n        /* \"#utility.yul\":10125:10222   */\n      tag_232\n        /* \"#utility.yul\":10155:10221   */\n      0xffffffffffffffffffffffffffffffffffffffffffffffffffffffffffffffff\n        /* \"#utility.yul\":10144:10153   */\n      dup3\n        /* \"#utility.yul\":10125:10222   */\n      tag_114\n      jump\t// in\n    tag_232:\n        /* \"#utility.yul\":10243:10282   */\n      tag_233\n        /* \"#utility.yul\":10273:10281   */\n      dup7\n        /* \"#utility.yul\":10262:10271   */\n      dup4\n        /* \"#utility.yul\":10243:10282   */\n      tag_114\n      jump\t// in\n    tag_233:\n        /* \"#utility.yul\":10231:10282   */\n      swap6\n      pop\n        /* \"#utility.yul\":10315:10319   */\n      dup1\n        /* \"#utility.yul\":10311:10320   */\n      not\n        /* \"#utility.yul\":10304:10309   */\n      dup5\n        /* \"#utility.yul\":10300:10321   */\n      and\n        /* \"#utility.yul\":10291:10321   */\n      swap4\n      pop\n        /* \"#utility.yul\":10364:10368   */\n      dup1\n        /* \"#utility.yul\":10354:10362   */\n      dup7\n        /* \"#utility.yul\":10350:10369   */\n      and\n        /* \"#utility.yul\":10343:10348   */\n      dup5\n        /* \"#utility.yul\":10340:10370   */\n      or\n        /* \"#utility.yul\":10330:10370   */\n      swap3\n      pop\n        /* \"#utility.yul\":10059:10376   */\n      pop\n      pop\n        /* \"#utility.yul\":9983:10376   */\n      swap4\n      swap3\n      pop\n      pop\n      pop\n      jump\t// out\n        /* \"#utility.yul\":10382:10442   */\n    tag_116:\n        /* \"#utility.yul\":10410:10413   */\n      0x00\n        /* \"#utility.yul\":10431:10436   */\n      dup2\n        /* \"#utility.yul\":10424:10436   */\n      swap1\n      pop\n        /* \"#utility.yul\":10382:10442   */\n      swap2\n      swap1\n      pop\n      jump\t// out\n        /* \"#utility.yul\":10448:10590   */\n    tag_117:\n        /* \"#utility.yul\":10498:10507   */\n      0x00\n        /* \"#utility.yul\":10531:10584   */\n      tag_236\n        /* \"#utility.yul\":10549:10583   */\n      tag_237\n        /* \"#utility.yul\":10558:10582   */\n      tag_238\n        /* \"#utility.yul\":10576:10581   */\n      dup5\n        /* \"#utility.yul\":10558:10582   */\n      tag_91\n      jump\t// in\n    tag_238:\n        /* \"#utility.yul\":10549:10583   */\n      tag_116\n      jump\t// in\n    tag_237:\n        /* \"#utility.yul\":10531:10584   */\n      tag_91\n      jump\t// in\n    tag_236:\n        /* \"#utility.yul\":10518:10584   */\n      swap1\n      pop\n        /* \"#utility.yul\":10448:10590   */\n      swap2\n      swap1\n      pop\n      jump\t// out\n        /* \"#utility.yul\":10596:10671   */\n    tag_118:\n        /* \"#utility.yul\":10639:10642   */\n      0x00\n        /* \"#utility.yul\":10660:10665   */\n      dup2\n        /* \"#utility.yul\":10653:10665   */\n      swap1\n      pop\n        /* \"#utility.yul\":10596:10671   */\n      swap2\n      swap1\n      pop\n      jump\t// out\n        /* \"#utility.yul\":10677:10946   */\n    tag_119:\n        /* \"#utility.yul\":10787:10826   */\n      tag_241\n        /* \"#utility.yul\":10818:10825   */\n      dup4\n        /* \"#utility.yul\":10787:10826   */\n      tag_117\n      jump\t// in\n    tag_241:\n        /* \"#utility.yul\":10848:10939   */\n      tag_242\n        /* \"#utility.yul\":10897:10938   */\n      tag_243\n        /* \"#utility.yul\":10921:10937   */\n      dup3\n        /* \"#utility.yul\":10897:10938   */\n      tag_118\n      jump\t// in\n    tag_243:\n        /* \"#utility.yul\":10889:10895   */\n      dup5\n        /* \"#utility.yul\":10882:10886   */\n      dup5\n        /* \"#utility.yul\":10876:10887   */\n      sload\n        /* \"#utility.yul\":10848:10939   */\n      tag_115\n      jump\t// in\n    tag_242:\n        /* \"#utility.yul\":10842:10846   */\n      dup3\n        /* \"#utility.yul\":10835:10940   */\n      sstore\n        /* \"#utility.yul\":10753:10946   */\n      pop\n        /* \"#utility.yul\":10677:10946   */\n      pop\n      pop\n      pop\n      jump\t// out\n        /* \"#utility.yul\":10952:11025   */\n    tag_120:\n        /* \"#utility.yul\":10997:11000   */\n      0x00\n        /* \"#utility.yul\":10952:11025   */\n      swap1\n      jump\t// out\n        /* \"#utility.yul\":11031:11220   */\n    tag_121:\n        /* \"#utility.yul\":11108:11140   */\n      tag_246\n      tag_120\n      jump\t// in\n    tag_246:\n        /* \"#utility.yul\":11149:11214   */\n      tag_247\n        /* \"#utility.yul\":11207:11213   */\n      dup2\n        /* \"#utility.yul\":11199:11205   */\n      dup5\n        /* \"#utility.yul\":11193:11197   */\n      dup5\n        /* \"#utility.yul\":11149:11214   */\n      tag_119\n      jump\t// in\n    tag_247:\n        /* \"#utility.yul\":11084:11220   */\n      pop\n        /* \"#utility.yul\":11031:11220   */\n      pop\n      pop\n      jump\t// out\n        /* \"#utility.yul\":11226:11412   */\n    tag_122:\n        /* \"#utility.yul\":11286:11406   */\n    tag_249:\n        /* \"#utility.yul\":11303:11306   */\n      dup2\n        /* \"#utility.yul\":11296:11301   */\n      dup2\n        /* \"#utility.yul\":11293:11307   */\n      lt\n        /* \"#utility.yul\":11286:11406   */\n      iszero\n      tag_251\n      jumpi\n        /* \"#utility.yul\":11357:11396   */\n      tag_252\n        /* \"#utility.yul\":11394:11395   */\n      0x00\n        /* \"#utility.yul\":11387:11392   */\n      dup3\n        /* \"#utility.yul\":11357:11396   */\n      tag_121\n      jump\t// in\n    tag_252:\n        /* \"#utility.yul\":11330:11331   */\n      0x01\n        /* \"#utility.yul\":11323:11328   */\n      dup2\n        /* \"#utility.yul\":11319:11332   */\n      add\n        /* \"#utility.yul\":11310:11332   */\n      swap1\n      pop\n        /* \"#utility.yul\":11286:11406   */\n      jump(tag_249)\n    tag_251:\n        /* \"#utility.yul\":11226:11412   */\n      pop\n      pop\n      jump\t// out\n        /* \"#utility.yul\":11418:11961   */\n    tag_123:\n        /* \"#utility.yul\":11519:11521   */\n      0x1f\n        /* \"#utility.yul\":11514:11517   */\n      dup3\n        /* \"#utility.yul\":11511:11522   */\n      gt\n        /* \"#utility.yul\":11508:11954   */\n      iszero\n      tag_254\n      jumpi\n        /* \"#utility.yul\":11553:11591   */\n      tag_255\n        /* \"#utility.yul\":11585:11590   */\n      dup2\n        /* \"#utility.yul\":11553:11591   */\n      tag_112\n      jump\t// in\n    tag_255:\n        /* \"#utility.yul\":11637:11666   */\n      tag_256\n        /* \"#utility.yul\":11655:11665   */\n      dup5\n        /* \"#utility.yul\":11637:11666   */\n      tag_113\n      jump\t// in\n    tag_256:\n        /* \"#utility.yul\":11627:11635   */\n      dup2\n        /* \"#utility.yul\":11623:11667   */\n      add\n        /* \"#utility.yul\":11820:11822   */\n      0x20\n        /* \"#utility.yul\":11808:11818   */\n      dup6\n        /* \"#utility.yul\":11805:11823   */\n      lt\n        /* \"#utility.yul\":11802:11851   */\n      iszero\n      tag_257\n      jumpi\n        /* \"#utility.yul\":11841:11849   */\n      dup2\n        /* \"#utility.yul\":11826:11849   */\n      swap1\n      pop\n        /* \"#utility.yul\":11802:11851   */\n    tag_257:\n        /* \"#utility.yul\":11864:11944   */\n      tag_258\n        /* \"#utility.yul\":11920:11942   */\n      tag_259\n        /* \"#utility.yul\":11938:11941   */\n      dup6\n        /* \"#utility.yul\":11920:11942   */\n      tag_113\n      jump\t// in\n    tag_259:\n        /* \"#utility.yul\":11910:11918   */\n      dup4\n        /* \"#utility.yul\":11906:11943   */\n      add\n        /* \"#utility.yul\":11893:11904   */\n      dup3\n        /* \"#utility.yul\":11864:11944   */\n      tag_122\n      jump\t// in\n    tag_258:\n        /* \"#utility.yul\":11523:11954   */\n      pop\n      pop\n        /* \"#utility.yul\":11508:11954   */\n    tag_254:\n        /* \"#utility.yul\":11418:11961   */\n      pop\n      pop\n      pop\n      jump\t// out\n        /* \"#utility.yul\":11967:12084   */\n    tag_124:\n        /* \"#utility.yul\":12021:12029   */\n      0x00\n        /* \"#utility.yul\":12071:12076   */\n      dup3\n        /* \"#utility.yul\":12065:12069   */\n      dup3\n        /* \"#utility.yul\":12061:12077   */\n      shr\n        /* \"#utility.yul\":12040:12077   */\n      swap1\n      pop\n        /* \"#utility.yul\":11967:12084   */\n      swap3\n      swap2\n      pop\n      pop\n      jump\t// out\n        /* \"#utility.yul\":12090:12259   */\n    tag_125:\n        /* \"#utility.yul\":12134:12140   */\n      0x00\n        /* \"#utility.yul\":12167:12218   */\n      tag_262\n        /* \"#utility.yul\":12215:12216   */\n      0x00\n        /* \"#utility.yul\":12211:12217   */\n      not\n        /* \"#utility.yul\":12203:12208   */\n      dup5\n        /* \"#utility.yul\":12200:12201   */\n      0x08\n        /* \"#utility.yul\":12196:12209   */\n      mul\n        /* \"#utility.yul\":12167:12218   */\n      tag_124\n      jump\t// in\n    tag_262:\n        /* \"#utility.yul\":12163:12219   */\n      not\n        /* \"#utility.yul\":12248:12252   */\n      dup1\n        /* \"#utility.yul\":12242:12246   */\n      dup4\n        /* \"#utility.yul\":12238:12253   */\n      and\n        /* \"#utility.yul\":12228:12253   */\n      swap2\n      pop\n        /* \"#utility.yul\":12141:12259   */\n      pop\n        /* \"#utility.yul\":12090:12259   */\n      swap3\n      swap2\n      pop\n      pop\n      jump\t// out\n        /* \"#utility.yul\":12264:12559   */\n    tag_126:\n        /* \"#utility.yul\":12340:12344   */\n      0x00\n        /* \"#utility.yul\":12486:12515   */\n      tag_264\n        /* \"#utility.yul\":12511:12514   */\n      dup4\n        /* \"#utility.yul\":12505:12509   */\n      dup4\n        /* \"#utility.yul\":12486:12515   */\n      tag_125\n      jump\t// in\n    tag_264:\n        /* \"#utility.yul\":12478:12515   */\n      swap2\n      pop\n        /* \"#utility.yul\":12548:12551   */\n      dup3\n        /* \"#utility.yul\":12545:12546   */\n      0x02\n        /* \"#utility.yul\":12541:12552   */\n      mul\n        /* \"#utility.yul\":12535:12539   */\n      dup3\n        /* \"#utility.yul\":12532:12553   */\n      or\n        /* \"#utility.yul\":12524:12553   */\n      swap1\n      pop\n        /* \"#utility.yul\":12264:12559   */\n      swap3\n      swap2\n      pop\n      pop\n      jump\t// out\n        /* \"#utility.yul\":12564:13959   */\n    tag_30:\n        /* \"#utility.yul\":12681:12718   */\n      tag_266\n        /* \"#utility.yul\":12714:12717   */\n      dup3\n        /* \"#utility.yul\":12681:12718   */\n      tag_106\n      jump\t// in\n    tag_266:\n        /* \"#utility.yul\":12783:12801   */\n      0xffffffffffffffff\n        /* \"#utility.yul\":12775:12781   */\n      dup2\n        /* \"#utility.yul\":12772:12802   */\n      gt\n        /* \"#utility.yul\":12769:12825   */\n      iszero\n      tag_267\n      jumpi\n        /* \"#utility.yul\":12805:12823   */\n      tag_268\n      tag_97\n      jump\t// in\n    tag_268:\n        /* \"#utility.yul\":12769:12825   */\n    tag_267:\n        /* \"#utility.yul\":12849:12887   */\n      tag_269\n        /* \"#utility.yul\":12881:12885   */\n      dup3\n        /* \"#utility.yul\":12875:12886   */\n      sload\n        /* \"#utility.yul\":12849:12887   */\n      tag_46\n      jump\t// in\n    tag_269:\n        /* \"#utility.yul\":12934:13001   */\n      tag_270\n        /* \"#utility.yul\":12994:13000   */\n      dup3\n        /* \"#utility.yul\":12986:12992   */\n      dup3\n        /* \"#utility.yul\":12980:12984   */\n      dup6\n        /* \"#utility.yul\":12934:13001   */\n      tag_123\n      jump\t// in\n    tag_270:\n        /* \"#utility.yul\":13028:13029   */\n      0x00\n        /* \"#utility.yul\":13052:13056   */\n      0x20\n        /* \"#utility.yul\":13039:13056   */\n      swap1\n      pop\n        /* \"#utility.yul\":13084:13086   */\n      0x1f\n        /* \"#utility.yul\":13076:13082   */\n      dup4\n        /* \"#utility.yul\":13073:13087   */\n      gt\n        /* \"#utility.yul\":13101:13102   */\n      0x01\n        /* \"#utility.yul\":13096:13714   */\n      dup2\n      eq\n      tag_272\n      jumpi\n        /* \"#utility.yul\":13758:13759   */\n      0x00\n        /* \"#utility.yul\":13775:13781   */\n      dup5\n        /* \"#utility.yul\":13772:13849   */\n      iszero\n      tag_273\n      jumpi\n        /* \"#utility.yul\":13824:13833   */\n      dup3\n        /* \"#utility.yul\":13819:13822   */\n      dup8\n        /* \"#utility.yul\":13815:13834   */\n      add\n        /* \"#utility.yul\":13809:13835   */\n      mload\n        /* \"#utility.yul\":13800:13835   */\n      swap1\n      pop\n        /* \"#utility.yul\":13772:13849   */\n    tag_273:\n        /* \"#utility.yul\":13875:13942   */\n      tag_274\n        /* \"#utility.yul\":13935:13941   */\n      dup6\n        /* \"#utility.yul\":13928:13933   */\n      dup3\n        /* \"#utility.yul\":13875:13942   */\n      tag_126\n      jump\t// in\n    tag_274:\n        /* \"#utility.yul\":13869:13873   */\n      dup7\n        /* \"#utility.yul\":13862:13943   */\n      sstore\n        /* \"#utility.yul\":13731:13953   */\n      pop\n        /* \"#utility.yul\":13066:13953   */\n      jump(tag_271)\n        /* \"#utility.yul\":13096:13714   */\n    tag_272:\n        /* \"#utility.yul\":13148:13152   */\n      0x1f\n        /* \"#utility.yul\":13144:13153   */\n      not\n        /* \"#utility.yul\":13136:13142   */\n      dup5\n        /* \"#utility.yul\":13132:13154   */\n      and\n        /* \"#utility.yul\":13182:13219   */\n      tag_275\n        /* \"#utility.yul\":13214:13218   */\n      dup7\n        /* \"#utility.yul\":13182:13219   */\n      tag_112\n      jump\t// in\n    tag_275:\n        /* \"#utility.yul\":13241:13242   */\n      0x00\n        /* \"#utility.yul\":13255:13463   */\n    tag_276:\n        /* \"#utility.yul\":13269:13276   */\n      dup3\n        /* \"#utility.yul\":13266:13267   */\n      dup2\n        /* \"#utility.yul\":13263:13277   */\n      lt\n        /* \"#utility.yul\":13255:13463   */\n      iszero\n      tag_278\n      jumpi\n        /* \"#utility.yul\":13348:13357   */\n      dup5\n        /* \"#utility.yul\":13343:13346   */\n      dup10\n        /* \"#utility.yul\":13339:13358   */\n      add\n        /* \"#utility.yul\":13333:13359   */\n      mload\n        /* \"#utility.yul\":13325:13331   */\n      dup3\n        /* \"#utility.yul\":13318:13360   */\n      sstore\n        /* \"#utility.yul\":13399:13400   */\n      0x01\n        /* \"#utility.yul\":13391:13397   */\n      dup3\n        /* \"#utility.yul\":13387:13401   */\n      add\n        /* \"#utility.yul\":13377:13401   */\n      swap2\n      pop\n        /* \"#utility.yul\":13446:13448   */\n      0x20\n        /* \"#utility.yul\":13435:13444   */\n      dup6\n        /* \"#utility.yul\":13431:13449   */\n      add\n        /* \"#utility.yul\":13418:13449   */\n      swap5\n      pop\n        /* \"#utility.yul\":13292:13296   */\n      0x20\n        /* \"#utility.yul\":13289:13290   */\n      dup2\n        /* \"#utility.yul\":13285:13297   */\n      add\n        /* \"#utility.yul\":13280:13297   */\n      swap1\n      pop\n        /* \"#utility.yul\":13255:13463   */\n      jump(tag_276)\n    tag_278:\n        /* \"#utility.yul\":13491:13497   */\n      dup7\n        /* \"#utility.yul\":13482:13489   */\n      dup4\n        /* \"#utility.yul\":13479:13498   */\n      lt\n        /* \"#utility.yul\":13476:13655   */\n      iszero\n      tag_279\n      jumpi\n        /* \"#utility.yul\":13549:13558   */\n      dup5\n        /* \"#utility.yul\":13544:13547   */\n      dup10\n        /* \"#utility.yul\":13540:13559   */\n      add\n        /* \"#utility.yul\":13534:13560   */\n      mload\n        /* \"#utility.yul\":13592:13640   */\n      tag_280\n        /* \"#utility.yul\":13634:13638   */\n      0x1f\n        /* \"#utility.yul\":13626:13632   */\n      dup10\n        /* \"#utility.yul\":13622:13639   */\n      and\n        /* \"#utility.yul\":13611:13620   */\n      dup3\n        /* \"#utility.yul\":13592:13640   */\n      tag_125\n      jump\t// in\n    tag_280:\n        /* \"#utility.yul\":13584:13590   */\n      dup4\n        /* \"#utility.yul\":13577:13641   */\n      sstore\n        /* \"#utility.yul\":13499:13655   */\n      pop\n        /* \"#utility.yul\":13476:13655   */\n    tag_279:\n        /* \"#utility.yul\":13701:13702   */\n      0x01\n        /* \"#utility.yul\":13697:13698   */\n      0x02\n        /* \"#utility.yul\":13689:13695   */\n      dup9\n        /* \"#utility.yul\":13685:13699   */\n      mul\n        /* \"#utility.yul\":13681:13703   */\n      add\n        /* \"#utility.yul\":13675:13679   */\n      dup9\n        /* \"#utility.yul\":13668:13704   */\n      sstore\n        /* \"#utility.yul\":13103:13714   */\n      pop\n      pop\n      pop\n        /* \"#utility.yul\":13066:13953   */\n    tag_271:\n      pop\n        /* \"#utility.yul\":12656:13959   */\n      pop\n      pop\n      pop\n        /* \"#utility.yul\":12564:13959   */\n      pop\n      pop\n      jump\t// out\n        /* \"#utility.yul\":13965:14137   */\n    tag_127:\n        /* \"#utility.yul\":14105:14129   */\n      0x50726f7065727479206e6f742072656769737465726400000000000000000000\n        /* \"#utility.yul\":14101:14102   */\n      0x00\n        /* \"#utility.yul\":14093:14099   */\n      dup3\n        /* \"#utility.yul\":14089:14103   */\n      add\n        /* \"#utility.yul\":14082:14130   */\n      mstore\n        /* \"#utility.yul\":13965:14137   */\n      pop\n      jump\t// out\n        /* \"#utility.yul\":14143:14509   */\n    tag_128:\n        /* \"#utility.yul\":14285:14288   */\n      0x00\n        /* \"#utility.yul\":14306:14373   */\n      tag_283\n        /* \"#utility.yul\":14370:14372   */\n      0x16\n        /* \"#utility.yul\":14365:14368   */\n      dup4\n        /* \"#utility.yul\":14306:14373   */\n      tag_107\n      jump\t// in\n    tag_283:\n        /* \"#utility.yul\":14299:14373   */\n      swap2\n      pop\n        /* \"#utility.yul\":14382:14475   */\n      tag_284\n        /* \"#utility.yul\":14471:14474   */\n      dup3\n        /* \"#utility.yul\":14382:14475   */\n      tag_127\n      jump\t// in\n    tag_284:\n        /* \"#utility.yul\":14500:14502   */\n      0x20\n        /* \"#utility.yul\":14495:14498   */\n      dup3\n        /* \"#utility.yul\":14491:14503   */\n      add\n        /* \"#utility.yul\":14484:14503   */\n      swap1\n      pop\n        /* \"#utility.yul\":14143:14509   */\n      swap2\n      swap1\n      pop\n      jump\t// out\n        /* \"#utility.yul\":14515:14934   */\n    tag_68:\n        /* \"#utility.yul\":14681:14685   */\n      0x00\n        /* \"#utility.yul\":14719:14721   */\n      0x20\n        /* \"#utility.yul\":14708:14717   */\n      dup3\n        /* \"#utility.yul\":14704:14722   */\n      add\n        /* \"#utility.yul\":14696:14722   */\n      swap1\n      pop\n        /* \"#utility.yul\":14768:14777   */\n      dup2\n        /* \"#utility.yul\":14762:14766   */\n      dup2\n        /* \"#utility.yul\":14758:14778   */\n      sub\n        /* \"#utility.yul\":14754:14755   */\n      0x00\n        /* \"#utility.yul\":14743:14752   */\n      dup4\n        /* \"#utility.yul\":14739:14756   */\n      add\n        /* \"#utility.yul\":14732:14779   */\n      mstore\n        /* \"#utility.yul\":14796:14927   */\n      tag_286\n        /* \"#utility.yul\":14922:14926   */\n      dup2\n        /* \"#utility.yul\":14796:14927   */\n      tag_128\n      jump\t// in\n    tag_286:\n        /* \"#utility.yul\":14788:14927   */\n      swap1\n      pop\n        /* \"#utility.yul\":14515:14934   */\n      swap2\n      swap1\n      pop\n      jump\t// out\n\n    auxdata: 0xa26469706673582212202a82d764a840d554050e9ff7a84a97aaa3d0deb810e3b58ef69c4a61910744b664736f6c63430008120033\n}\n",
				"bytecode": {
					"linkReferences": {},
					"object": "608060405234801561001057600080fd5b50610fc7806100206000396000f3fe608060405234801561001057600080fd5b50600436106100415760003560e01c806321a9ecb2146100465780633e14d6171461007657806371eb56d8146100a6575b600080fd5b610060600480360381019061005b919061092f565b6100db565b60405161006d9190610aab565b60405180910390f35b610090600480360381019061008b9190610acd565b61025f565b60405161009d9190610aab565b60405180910390f35b6100c060048036038101906100bb9190610b58565b610335565b6040516100d296959493929190610b94565b60405180910390f35b6060866000808981526020019081526020016000206000015403610136576040518060400160405280601781526020017f50726f706572747920616c7265616479206578697374730000000000000000008152509050610255565b6040518060c001604052808881526020018781526020018660028111156101605761015f610c18565b5b8152602001858152602001848152602001838152506000808981526020019081526020016000206000820151816000015560208201518160010190816101a69190610e53565b5060408201518160020160006101000a81548160ff021916908360028111156101d2576101d1610c18565b5b021790555060608201518160030190816101ec9190610e53565b5060808201518160040190816102029190610e53565b5060a08201518160050190816102189190610e53565b509050506040518060400160405280601a81526020017f50726f70657274792061646465642073756365657366756c6c7900000000000081525090505b9695505050505050565b60608360008086815260200190815260200160002060000154036102f55760008060008681526020019081526020016000209050838160040190816102a49190610e53565b50828160050190816102b69190610e53565b506040518060400160405280601d81526020017f5472616e736665722075706461746564207375636365737366756c6c7900000081525091505061032e565b6040518060400160405280601681526020017f50726f7065727479206e6f74207265676973747265640000000000000000000081525090505b9392505050565b600060608060608060608660008089815260200190815260200160002060000154036105e257600080600089815260200190815260200160002090508060000154816001016103948360020160009054906101000a900460ff16610626565b8360030184600401856005018480546103ac90610c76565b80601f01602080910402602001604051908101604052809291908181526020018280546103d890610c76565b80156104255780601f106103fa57610100808354040283529160200191610425565b820191906000526020600020905b81548152906001019060200180831161040857829003601f168201915b5050505050945082805461043890610c76565b80601f016020809104026020016040519081016040528092919081815260200182805461046490610c76565b80156104b15780601f10610486576101008083540402835291602001916104b1565b820191906000526020600020905b81548152906001019060200180831161049457829003601f168201915b505050505092508180546104c490610c76565b80601f01602080910402602001604051908101604052809291908181526020018280546104f090610c76565b801561053d5780601f106105125761010080835404028352916020019161053d565b820191906000526020600020905b81548152906001019060200180831161052057829003601f168201915b5050505050915080805461055090610c76565b80601f016020809104026020016040519081016040528092919081815260200182805461057c90610c76565b80156105c95780601f1061059e576101008083540402835291602001916105c9565b820191906000526020600020905b8154815290600101906020018083116105ac57829003601f168201915b505050505090509650965096509650965096505061061d565b6040517f08c379a000000000000000000000000000000000000000000000000000000000815260040161061490610f71565b60405180910390fd5b91939550919395565b606081600281111561063b5761063a610c18565b5b6000600281111561064f5761064e610c18565b5b03610691576040518060400160405280600b81526020017f5245534944454e5449414c0000000000000000000000000000000000000000008152509050610775565b8160028111156106a4576106a3610c18565b5b600160028111156106b8576106b7610c18565b5b036106fa576040518060400160405280600a81526020017f434f4d4d45524349414c000000000000000000000000000000000000000000008152509050610775565b81600281111561070d5761070c610c18565b5b6002808111156107205761071f610c18565b5b03610762576040518060400160405280600a81526020017f494e445553545249414c000000000000000000000000000000000000000000008152509050610775565b6040518060200160405280600081525090505b919050565b6000604051905090565b600080fd5b600080fd5b6000819050919050565b6107a18161078e565b81146107ac57600080fd5b50565b6000813590506107be81610798565b92915050565b600080fd5b600080fd5b6000601f19601f8301169050919050565b7f4e487b7100000000000000000000000000000000000000000000000000000000600052604160045260246000fd5b610817826107ce565b810181811067ffffffffffffffff82111715610836576108356107df565b5b80604052505050565b600061084961077a565b9050610855828261080e565b919050565b600067ffffffffffffffff821115610875576108746107df565b5b61087e826107ce565b9050602081019050919050565b82818337600083830152505050565b60006108ad6108a88461085a565b61083f565b9050828152602081018484840111156108c9576108c86107c9565b5b6108d484828561088b565b509392505050565b600082601f8301126108f1576108f06107c4565b5b813561090184826020860161089a565b91505092915050565b6003811061091757600080fd5b50565b6000813590506109298161090a565b92915050565b60008060008060008060c0878903121561094c5761094b610784565b5b600061095a89828a016107af565b965050602087013567ffffffffffffffff81111561097b5761097a610789565b5b61098789828a016108dc565b955050604061099889828a0161091a565b945050606087013567ffffffffffffffff8111156109b9576109b8610789565b5b6109c589828a016108dc565b935050608087013567ffffffffffffffff8111156109e6576109e5610789565b5b6109f289828a016108dc565b92505060a087013567ffffffffffffffff811115610a1357610a12610789565b5b610a1f89828a016108dc565b9150509295509295509295565b600081519050919050565b600082825260208201905092915050565b60005b83811015610a66578082015181840152602081019050610a4b565b60008484015250505050565b6000610a7d82610a2c565b610a878185610a37565b9350610a97818560208601610a48565b610aa0816107ce565b840191505092915050565b60006020820190508181036000830152610ac58184610a72565b905092915050565b600080600060608486031215610ae657610ae5610784565b5b6000610af4868287016107af565b935050602084013567ffffffffffffffff811115610b1557610b14610789565b5b610b21868287016108dc565b925050604084013567ffffffffffffffff811115610b4257610b41610789565b5b610b4e868287016108dc565b9150509250925092565b600060208284031215610b6e57610b6d610784565b5b6000610b7c848285016107af565b91505092915050565b610b8e8161078e565b82525050565b600060c082019050610ba96000830189610b85565b8181036020830152610bbb8188610a72565b90508181036040830152610bcf8187610a72565b90508181036060830152610be38186610a72565b90508181036080830152610bf78185610a72565b905081810360a0830152610c0b8184610a72565b9050979650505050505050565b7f4e487b7100000000000000000000000000000000000000000000000000000000600052602160045260246000fd5b7f4e487b7100000000000000000000000000000000000000000000000000000000600052602260045260246000fd5b60006002820490506001821680610c8e57607f821691505b602082108103610ca157610ca0610c47565b5b50919050565b60008190508160005260206000209050919050565b60006020601f8301049050919050565b600082821b905092915050565b600060088302610d097fffffffffffffffffffffffffffffffffffffffffffffffffffffffffffffffff82610ccc565b610d138683610ccc565b95508019841693508086168417925050509392505050565b6000819050919050565b6000610d50610d4b610d468461078e565b610d2b565b61078e565b9050919050565b6000819050919050565b610d6a83610d35565b610d7e610d7682610d57565b848454610cd9565b825550505050565b600090565b610d93610d86565b610d9e818484610d61565b505050565b5b81811015610dc257610db7600082610d8b565b600181019050610da4565b5050565b601f821115610e0757610dd881610ca7565b610de184610cbc565b81016020851015610df0578190505b610e04610dfc85610cbc565b830182610da3565b50505b505050565b600082821c905092915050565b6000610e2a60001984600802610e0c565b1980831691505092915050565b6000610e438383610e19565b9150826002028217905092915050565b610e5c82610a2c565b67ffffffffffffffff811115610e7557610e746107df565b5b610e7f8254610c76565b610e8a828285610dc6565b600060209050601f831160018114610ebd5760008415610eab578287015190505b610eb58582610e37565b865550610f1d565b601f198416610ecb86610ca7565b60005b82811015610ef357848901518255600182019150602085019450602081019050610ece565b86831015610f105784890151610f0c601f891682610e19565b8355505b6001600288020188555050505b505050505050565b7f50726f7065727479206e6f742072656769737465726400000000000000000000600082015250565b6000610f5b601683610a37565b9150610f6682610f25565b602082019050919050565b60006020820190508181036000830152610f8a81610f4e565b905091905056fea26469706673582212202a82d764a840d554050e9ff7a84a97aaa3d0deb810e3b58ef69c4a61910744b664736f6c63430008120033",
					"opcodes": "PUSH1 0x80 PUSH1 0x40 MSTORE CALLVALUE DUP1 ISZERO PUSH2 0x10 JUMPI PUSH1 0x0 DUP1 REVERT JUMPDEST POP PUSH2 0xFC7 DUP1 PUSH2 0x20 PUSH1 0x0 CODECOPY PUSH1 0x0 RETURN INVALID PUSH1 0x80 PUSH1 0x40 MSTORE CALLVALUE DUP1 ISZERO PUSH2 0x10 JUMPI PUSH1 0x0 DUP1 REVERT JUMPDEST POP PUSH1 0x4 CALLDATASIZE LT PUSH2 0x41 JUMPI PUSH1 0x0 CALLDATALOAD PUSH1 0xE0 SHR DUP1 PUSH4 0x21A9ECB2 EQ PUSH2 0x46 JUMPI DUP1 PUSH4 0x3E14D617 EQ PUSH2 0x76 JUMPI DUP1 PUSH4 0x71EB56D8 EQ PUSH2 0xA6 JUMPI JUMPDEST PUSH1 0x0 DUP1 REVERT JUMPDEST PUSH2 0x60 PUSH1 0x4 DUP1 CALLDATASIZE SUB DUP2 ADD SWAP1 PUSH2 0x5B SWAP2 SWAP1 PUSH2 0x92F JUMP JUMPDEST PUSH2 0xDB JUMP JUMPDEST PUSH1 0x40 MLOAD PUSH2 0x6D SWAP2 SWAP1 PUSH2 0xAAB JUMP JUMPDEST PUSH1 0x40 MLOAD DUP1 SWAP2 SUB SWAP1 RETURN JUMPDEST PUSH2 0x90 PUSH1 0x4 DUP1 CALLDATASIZE SUB DUP2 ADD SWAP1 PUSH2 0x8B SWAP2 SWAP1 PUSH2 0xACD JUMP JUMPDEST PUSH2 0x25F JUMP JUMPDEST PUSH1 0x40 MLOAD PUSH2 0x9D SWAP2 SWAP1 PUSH2 0xAAB JUMP JUMPDEST PUSH1 0x40 MLOAD DUP1 SWAP2 SUB SWAP1 RETURN JUMPDEST PUSH2 0xC0 PUSH1 0x4 DUP1 CALLDATASIZE SUB DUP2 ADD SWAP1 PUSH2 0xBB SWAP2 SWAP1 PUSH2 0xB58 JUMP JUMPDEST PUSH2 0x335 JUMP JUMPDEST PUSH1 0x40 MLOAD PUSH2 0xD2 SWAP7 SWAP6 SWAP5 SWAP4 SWAP3 SWAP2 SWAP1 PUSH2 0xB94 JUMP JUMPDEST PUSH1 0x40 MLOAD DUP1 SWAP2 SUB SWAP1 RETURN JUMPDEST PUSH1 0x60 DUP7 PUSH1 0x0 DUP1 DUP10 DUP2 MSTORE PUSH1 0x20 ADD SWAP1 DUP2 MSTORE PUSH1 0x20 ADD PUSH1 0x0 KECCAK256 PUSH1 0x0 ADD SLOAD SUB PUSH2 0x136 JUMPI PUSH1 0x40 MLOAD DUP1 PUSH1 0x40 ADD PUSH1 0x40 MSTORE DUP1 PUSH1 0x17 DUP2 MSTORE PUSH1 0x20 ADD PUSH32 0x50726F706572747920616C726561647920657869737473000000000000000000 DUP2 MSTORE POP SWAP1 POP PUSH2 0x255 JUMP JUMPDEST PUSH1 0x40 MLOAD DUP1 PUSH1 0xC0 ADD PUSH1 0x40 MSTORE DUP1 DUP9 DUP2 MSTORE PUSH1 0x20 ADD DUP8 DUP2 MSTORE PUSH1 0x20 ADD DUP7 PUSH1 0x2 DUP2 GT ISZERO PUSH2 0x160 JUMPI PUSH2 0x15F PUSH2 0xC18 JUMP JUMPDEST JUMPDEST DUP2 MSTORE PUSH1 0x20 ADD DUP6 DUP2 MSTORE PUSH1 0x20 ADD DUP5 DUP2 MSTORE PUSH1 0x20 ADD DUP4 DUP2 MSTORE POP PUSH1 0x0 DUP1 DUP10 DUP2 MSTORE PUSH1 0x20 ADD SWAP1 DUP2 MSTORE PUSH1 0x20 ADD PUSH1 0x0 KECCAK256 PUSH1 0x0 DUP3 ADD MLOAD DUP2 PUSH1 0x0 ADD SSTORE PUSH1 0x20 DUP3 ADD MLOAD DUP2 PUSH1 0x1 ADD SWAP1 DUP2 PUSH2 0x1A6 SWAP2 SWAP1 PUSH2 0xE53 JUMP JUMPDEST POP PUSH1 0x40 DUP3 ADD MLOAD DUP2 PUSH1 0x2 ADD PUSH1 0x0 PUSH2 0x100 EXP DUP2 SLOAD DUP2 PUSH1 0xFF MUL NOT AND SWAP1 DUP4 PUSH1 0x2 DUP2 GT ISZERO PUSH2 0x1D2 JUMPI PUSH2 0x1D1 PUSH2 0xC18 JUMP JUMPDEST JUMPDEST MUL OR SWAP1 SSTORE POP PUSH1 0x60 DUP3 ADD MLOAD DUP2 PUSH1 0x3 ADD SWAP1 DUP2 PUSH2 0x1EC SWAP2 SWAP1 PUSH2 0xE53 JUMP JUMPDEST POP PUSH1 0x80 DUP3 ADD MLOAD DUP2 PUSH1 0x4 ADD SWAP1 DUP2 PUSH2 0x202 SWAP2 SWAP1 PUSH2 0xE53 JUMP JUMPDEST POP PUSH1 0xA0 DUP3 ADD MLOAD DUP2 PUSH1 0x5 ADD SWAP1 DUP2 PUSH2 0x218 SWAP2 SWAP1 PUSH2 0xE53 JUMP JUMPDEST POP SWAP1 POP POP PUSH1 0x40 MLOAD DUP1 PUSH1 0x40 ADD PUSH1 0x40 MSTORE DUP1 PUSH1 0x1A DUP2 MSTORE PUSH1 0x20 ADD PUSH32 0x50726F70657274792061646465642073756365657366756C6C79000000000000 DUP2 MSTORE POP SWAP1 POP JUMPDEST SWAP7 SWAP6 POP POP POP POP POP POP JUMP JUMPDEST PUSH1 0x60 DUP4 PUSH1 0x0 DUP1 DUP7 DUP2 MSTORE PUSH1 0x20 ADD SWAP1 DUP2 MSTORE PUSH1 0x20 ADD PUSH1 0x0 KECCAK256 PUSH1 0x0 ADD SLOAD SUB PUSH2 0x2F5 JUMPI PUSH1 0x0 DUP1 PUSH1 0x0 DUP7 DUP2 MSTORE PUSH1 0x20 ADD SWAP1 DUP2 MSTORE PUSH1 0x20 ADD PUSH1 0x0 KECCAK256 SWAP1 POP DUP4 DUP2 PUSH1 0x4 ADD SWAP1 DUP2 PUSH2 0x2A4 SWAP2 SWAP1 PUSH2 0xE53 JUMP JUMPDEST POP DUP3 DUP2 PUSH1 0x5 ADD SWAP1 DUP2 PUSH2 0x2B6 SWAP2 SWAP1 PUSH2 0xE53 JUMP JUMPDEST POP PUSH1 0x40 MLOAD DUP1 PUSH1 0x40 ADD PUSH1 0x40 MSTORE DUP1 PUSH1 0x1D DUP2 MSTORE PUSH1 0x20 ADD PUSH32 0x5472616E736665722075706461746564207375636365737366756C6C79000000 DUP2 MSTORE POP SWAP2 POP POP PUSH2 0x32E JUMP JUMPDEST PUSH1 0x40 MLOAD DUP1 PUSH1 0x40 ADD PUSH1 0x40 MSTORE DUP1 PUSH1 0x16 DUP2 MSTORE PUSH1 0x20 ADD PUSH32 0x50726F7065727479206E6F742072656769737472656400000000000000000000 DUP2 MSTORE POP SWAP1 POP JUMPDEST SWAP4 SWAP3 POP POP POP JUMP JUMPDEST PUSH1 0x0 PUSH1 0x60 DUP1 PUSH1 0x60 DUP1 PUSH1 0x60 DUP7 PUSH1 0x0 DUP1 DUP10 DUP2 MSTORE PUSH1 0x20 ADD SWAP1 DUP2 MSTORE PUSH1 0x20 ADD PUSH1 0x0 KECCAK256 PUSH1 0x0 ADD SLOAD SUB PUSH2 0x5E2 JUMPI PUSH1 0x0 DUP1 PUSH1 0x0 DUP10 DUP2 MSTORE PUSH1 0x20 ADD SWAP1 DUP2 MSTORE PUSH1 0x20 ADD PUSH1 0x0 KECCAK256 SWAP1 POP DUP1 PUSH1 0x0 ADD SLOAD DUP2 PUSH1 0x1 ADD PUSH2 0x394 DUP4 PUSH1 0x2 ADD PUSH1 0x0 SWAP1 SLOAD SWAP1 PUSH2 0x100 EXP SWAP1 DIV PUSH1 0xFF AND PUSH2 0x626 JUMP JUMPDEST DUP4 PUSH1 0x3 ADD DUP5 PUSH1 0x4 ADD DUP6 PUSH1 0x5 ADD DUP5 DUP1 SLOAD PUSH2 0x3AC SWAP1 PUSH2 0xC76 JUMP JUMPDEST DUP1 PUSH1 0x1F ADD PUSH1 0x20 DUP1 SWAP2 DIV MUL PUSH1 0x20 ADD PUSH1 0x40 MLOAD SWAP1 DUP2 ADD PUSH1 0x40 MSTORE DUP1 SWAP3 SWAP2 SWAP1 DUP2 DUP2 MSTORE PUSH1 0x20 ADD DUP3 DUP1 SLOAD PUSH2 0x3D8 SWAP1 PUSH2 0xC76 JUMP JUMPDEST DUP1 ISZERO PUSH2 0x425 JUMPI DUP1 PUSH1 0x1F LT PUSH2 0x3FA JUMPI PUSH2 0x100 DUP1 DUP4 SLOAD DIV MUL DUP4 MSTORE SWAP2 PUSH1 0x20 ADD SWAP2 PUSH2 0x425 JUMP JUMPDEST DUP3 ADD SWAP2 SWAP1 PUSH1 0x0 MSTORE PUSH1 0x20 PUSH1 0x0 KECCAK256 SWAP1 JUMPDEST DUP2 SLOAD DUP2 MSTORE SWAP1 PUSH1 0x1 ADD SWAP1 PUSH1 0x20 ADD DUP1 DUP4 GT PUSH2 0x408 JUMPI DUP3 SWAP1 SUB PUSH1 0x1F AND DUP3 ADD SWAP2 JUMPDEST POP POP POP POP POP SWAP5 POP DUP3 DUP1 SLOAD PUSH2 0x438 SWAP1 PUSH2 0xC76 JUMP JUMPDEST DUP1 PUSH1 0x1F ADD PUSH1 0x20 DUP1 SWAP2 DIV MUL PUSH1 0x20 ADD PUSH1 0x40 MLOAD SWAP1 DUP2 ADD PUSH1 0x40 MSTORE DUP1 SWAP3 SWAP2 SWAP1 DUP2 DUP2 MSTORE PUSH1 0x20 ADD DUP3 DUP1 SLOAD PUSH2 0x464 SWAP1 PUSH2 0xC76 JUMP JUMPDEST DUP1 ISZERO PUSH2 0x4B1 JUMPI DUP1 PUSH1 0x1F LT PUSH2 0x486 JUMPI PUSH2 0x100 DUP1 DUP4 SLOAD DIV MUL DUP4 MSTORE SWAP2 PUSH1 0x20 ADD SWAP2 PUSH2 0x4B1 JUMP JUMPDEST DUP3 ADD SWAP2 SWAP1 PUSH1 0x0 MSTORE PUSH1 0x20 PUSH1 0x0 KECCAK256 SWAP1 JUMPDEST DUP2 SLOAD DUP2 MSTORE SWAP1 PUSH1 0x1 ADD SWAP1 PUSH1 0x20 ADD DUP1 DUP4 GT PUSH2 0x494 JUMPI DUP3 SWAP1 SUB PUSH1 0x1F AND DUP3 ADD SWAP2 JUMPDEST POP POP POP POP POP SWAP3 POP DUP2 DUP1 SLOAD PUSH2 0x4C4 SWAP1 PUSH2 0xC76 JUMP JUMPDEST DUP1 PUSH1 0x1F ADD PUSH1 0x20 DUP1 SWAP2 DIV MUL PUSH1 0x20 ADD PUSH1 0x40 MLOAD SWAP1 DUP2 ADD PUSH1 0x40 MSTORE DUP1 SWAP3 SWAP2 SWAP1 DUP2 DUP2 MSTORE PUSH1 0x20 ADD DUP3 DUP1 SLOAD PUSH2 0x4F0 SWAP1 PUSH2 0xC76 JUMP JUMPDEST DUP1 ISZERO PUSH2 0x53D JUMPI DUP1 PUSH1 0x1F LT PUSH2 0x512 JUMPI PUSH2 0x100 DUP1 DUP4 SLOAD DIV MUL DUP4 MSTORE SWAP2 PUSH1 0x20 ADD SWAP2 PUSH2 0x53D JUMP JUMPDEST DUP3 ADD SWAP2 SWAP1 PUSH1 0x0 MSTORE PUSH1 0x20 PUSH1 0x0 KECCAK256 SWAP1 JUMPDEST DUP2 SLOAD DUP2 MSTORE SWAP1 PUSH1 0x1 ADD SWAP1 PUSH1 0x20 ADD DUP1 DUP4 GT PUSH2 0x520 JUMPI DUP3 SWAP1 SUB PUSH1 0x1F AND DUP3 ADD SWAP2 JUMPDEST POP POP POP POP POP SWAP2 POP DUP1 DUP1 SLOAD PUSH2 0x550 SWAP1 PUSH2 0xC76 JUMP JUMPDEST DUP1 PUSH1 0x1F ADD PUSH1 0x20 DUP1 SWAP2 DIV MUL PUSH1 0x20 ADD PUSH1 0x40 MLOAD SWAP1 DUP2 ADD PUSH1 0x40 MSTORE DUP1 SWAP3 SWAP2 SWAP1 DUP2 DUP2 MSTORE PUSH1 0x20 ADD DUP3 DUP1 SLOAD PUSH2 0x57C SWAP1 PUSH2 0xC76 JUMP JUMPDEST DUP1 ISZERO PUSH2 0x5C9 JUMPI DUP1 PUSH1 0x1F LT PUSH2 0x59E JUMPI PUSH2 0x100 DUP1 DUP4 SLOAD DIV MUL DUP4 MSTORE SWAP2 PUSH1 0x20 ADD SWAP2 PUSH2 0x5C9 JUMP JUMPDEST DUP3 ADD SWAP2 SWAP1 PUSH1 0x0 MSTORE PUSH1 0x20 PUSH1 0x0 KECCAK256 SWAP1 JUMPDEST DUP2 SLOAD DUP2 MSTORE SWAP1 PUSH1 0x1 ADD SWAP1 PUSH1 0x20 ADD DUP1 DUP4 GT PUSH2 0x5AC JUMPI DUP3 SWAP1 SUB PUSH1 0x1F AND DUP3 ADD SWAP2 JUMPDEST POP POP POP POP POP SWAP1 POP SWAP7 POP SWAP7 POP SWAP7 POP SWAP7 POP SWAP7 POP SWAP7 POP POP PUSH2 0x61D JUMP JUMPDEST PUSH1 0x40 MLOAD PUSH32 0x8C379A000000000000000000000000000000000000000000000000000000000 DUP2 MSTORE PUSH1 0x4 ADD PUSH2 0x614 SWAP1 PUSH2 0xF71 JUMP JUMPDEST PUSH1 0x40 MLOAD DUP1 SWAP2 SUB SWAP1 REVERT JUMPDEST SWAP2 SWAP4 SWAP6 POP SWAP2 SWAP4 SWAP6 JUMP JUMPDEST PUSH1 0x60 DUP2 PUSH1 0x2 DUP2 GT ISZERO PUSH2 0x63B JUMPI PUSH2 0x63A PUSH2 0xC18 JUMP JUMPDEST JUMPDEST PUSH1 0x0 PUSH1 0x2 DUP2 GT ISZERO PUSH2 0x64F JUMPI PUSH2 0x64E PUSH2 0xC18 JUMP JUMPDEST JUMPDEST SUB PUSH2 0x691 JUMPI PUSH1 0x40 MLOAD DUP1 PUSH1 0x40 ADD PUSH1 0x40 MSTORE DUP1 PUSH1 0xB DUP2 MSTORE PUSH1 0x20 ADD PUSH32 0x5245534944454E5449414C000000000000000000000000000000000000000000 DUP2 MSTORE POP SWAP1 POP PUSH2 0x775 JUMP JUMPDEST DUP2 PUSH1 0x2 DUP2 GT ISZERO PUSH2 0x6A4 JUMPI PUSH2 0x6A3 PUSH2 0xC18 JUMP JUMPDEST JUMPDEST PUSH1 0x1 PUSH1 0x2 DUP2 GT ISZERO PUSH2 0x6B8 JUMPI PUSH2 0x6B7 PUSH2 0xC18 JUMP JUMPDEST JUMPDEST SUB PUSH2 0x6FA JUMPI PUSH1 0x40 MLOAD DUP1 PUSH1 0x40 ADD PUSH1 0x40 MSTORE DUP1 PUSH1 0xA DUP2 MSTORE PUSH1 0x20 ADD PUSH32 0x434F4D4D45524349414C00000000000000000000000000000000000000000000 DUP2 MSTORE POP SWAP1 POP PUSH2 0x775 JUMP JUMPDEST DUP2 PUSH1 0x2 DUP2 GT ISZERO PUSH2 0x70D JUMPI PUSH2 0x70C PUSH2 0xC18 JUMP JUMPDEST JUMPDEST PUSH1 0x2 DUP1 DUP2 GT ISZERO PUSH2 0x720 JUMPI PUSH2 0x71F PUSH2 0xC18 JUMP JUMPDEST JUMPDEST SUB PUSH2 0x762 JUMPI PUSH1 0x40 MLOAD DUP1 PUSH1 0x40 ADD PUSH1 0x40 MSTORE DUP1 PUSH1 0xA DUP2 MSTORE PUSH1 0x20 ADD PUSH32 0x494E445553545249414C00000000000000000000000000000000000000000000 DUP2 MSTORE POP SWAP1 POP PUSH2 0x775 JUMP JUMPDEST PUSH1 0x40 MLOAD DUP1 PUSH1 0x20 ADD PUSH1 0x40 MSTORE DUP1 PUSH1 0x0 DUP2 MSTORE POP SWAP1 POP JUMPDEST SWAP2 SWAP1 POP JUMP JUMPDEST PUSH1 0x0 PUSH1 0x40 MLOAD SWAP1 POP SWAP1 JUMP JUMPDEST PUSH1 0x0 DUP1 REVERT JUMPDEST PUSH1 0x0 DUP1 REVERT JUMPDEST PUSH1 0x0 DUP2 SWAP1 POP SWAP2 SWAP1 POP JUMP JUMPDEST PUSH2 0x7A1 DUP2 PUSH2 0x78E JUMP JUMPDEST DUP2 EQ PUSH2 0x7AC JUMPI PUSH1 0x0 DUP1 REVERT JUMPDEST POP JUMP JUMPDEST PUSH1 0x0 DUP2 CALLDATALOAD SWAP1 POP PUSH2 0x7BE DUP2 PUSH2 0x798 JUMP JUMPDEST SWAP3 SWAP2 POP POP JUMP JUMPDEST PUSH1 0x0 DUP1 REVERT JUMPDEST PUSH1 0x0 DUP1 REVERT JUMPDEST PUSH1 0x0 PUSH1 0x1F NOT PUSH1 0x1F DUP4 ADD AND SWAP1 POP SWAP2 SWAP1 POP JUMP JUMPDEST PUSH32 0x4E487B7100000000000000000000000000000000000000000000000000000000 PUSH1 0x0 MSTORE PUSH1 0x41 PUSH1 0x4 MSTORE PUSH1 0x24 PUSH1 0x0 REVERT JUMPDEST PUSH2 0x817 DUP3 PUSH2 0x7CE JUMP JUMPDEST DUP2 ADD DUP2 DUP2 LT PUSH8 0xFFFFFFFFFFFFFFFF DUP3 GT OR ISZERO PUSH2 0x836 JUMPI PUSH2 0x835 PUSH2 0x7DF JUMP JUMPDEST JUMPDEST DUP1 PUSH1 0x40 MSTORE POP POP POP JUMP JUMPDEST PUSH1 0x0 PUSH2 0x849 PUSH2 0x77A JUMP JUMPDEST SWAP1 POP PUSH2 0x855 DUP3 DUP3 PUSH2 0x80E JUMP JUMPDEST SWAP2 SWAP1 POP JUMP JUMPDEST PUSH1 0x0 PUSH8 0xFFFFFFFFFFFFFFFF DUP3 GT ISZERO PUSH2 0x875 JUMPI PUSH2 0x874 PUSH2 0x7DF JUMP JUMPDEST JUMPDEST PUSH2 0x87E DUP3 PUSH2 0x7CE JUMP JUMPDEST SWAP1 POP PUSH1 0x20 DUP2 ADD SWAP1 POP SWAP2 SWAP1 POP JUMP JUMPDEST DUP3 DUP2 DUP4 CALLDATACOPY PUSH1 0x0 DUP4 DUP4 ADD MSTORE POP POP POP JUMP JUMPDEST PUSH1 0x0 PUSH2 0x8AD PUSH2 0x8A8 DUP5 PUSH2 0x85A JUMP JUMPDEST PUSH2 0x83F JUMP JUMPDEST SWAP1 POP DUP3 DUP2 MSTORE PUSH1 0x20 DUP2 ADD DUP5 DUP5 DUP5 ADD GT ISZERO PUSH2 0x8C9 JUMPI PUSH2 0x8C8 PUSH2 0x7C9 JUMP JUMPDEST JUMPDEST PUSH2 0x8D4 DUP5 DUP3 DUP6 PUSH2 0x88B JUMP JUMPDEST POP SWAP4 SWAP3 POP POP POP JUMP JUMPDEST PUSH1 0x0 DUP3 PUSH1 0x1F DUP4 ADD SLT PUSH2 0x8F1 JUMPI PUSH2 0x8F0 PUSH2 0x7C4 JUMP JUMPDEST JUMPDEST DUP2 CALLDATALOAD PUSH2 0x901 DUP5 DUP3 PUSH1 0x20 DUP7 ADD PUSH2 0x89A JUMP JUMPDEST SWAP2 POP POP SWAP3 SWAP2 POP POP JUMP JUMPDEST PUSH1 0x3 DUP2 LT PUSH2 0x917 JUMPI PUSH1 0x0 DUP1 REVERT JUMPDEST POP JUMP JUMPDEST PUSH1 0x0 DUP2 CALLDATALOAD SWAP1 POP PUSH2 0x929 DUP2 PUSH2 0x90A JUMP JUMPDEST SWAP3 SWAP2 POP POP JUMP JUMPDEST PUSH1 0x0 DUP1 PUSH1 0x0 DUP1 PUSH1 0x0 DUP1 PUSH1 0xC0 DUP8 DUP10 SUB SLT ISZERO PUSH2 0x94C JUMPI PUSH2 0x94B PUSH2 0x784 JUMP JUMPDEST JUMPDEST PUSH1 0x0 PUSH2 0x95A DUP10 DUP3 DUP11 ADD PUSH2 0x7AF JUMP JUMPDEST SWAP7 POP POP PUSH1 0x20 DUP8 ADD CALLDATALOAD PUSH8 0xFFFFFFFFFFFFFFFF DUP2 GT ISZERO PUSH2 0x97B JUMPI PUSH2 0x97A PUSH2 0x789 JUMP JUMPDEST JUMPDEST PUSH2 0x987 DUP10 DUP3 DUP11 ADD PUSH2 0x8DC JUMP JUMPDEST SWAP6 POP POP PUSH1 0x40 PUSH2 0x998 DUP10 DUP3 DUP11 ADD PUSH2 0x91A JUMP JUMPDEST SWAP5 POP POP PUSH1 0x60 DUP8 ADD CALLDATALOAD PUSH8 0xFFFFFFFFFFFFFFFF DUP2 GT ISZERO PUSH2 0x9B9 JUMPI PUSH2 0x9B8 PUSH2 0x789 JUMP JUMPDEST JUMPDEST PUSH2 0x9C5 DUP10 DUP3 DUP11 ADD PUSH2 0x8DC JUMP JUMPDEST SWAP4 POP POP PUSH1 0x80 DUP8 ADD CALLDATALOAD PUSH8 0xFFFFFFFFFFFFFFFF DUP2 GT ISZERO PUSH2 0x9E6 JUMPI PUSH2 0x9E5 PUSH2 0x789 JUMP JUMPDEST JUMPDEST PUSH2 0x9F2 DUP10 DUP3 DUP11 ADD PUSH2 0x8DC JUMP JUMPDEST SWAP3 POP POP PUSH1 0xA0 DUP8 ADD CALLDATALOAD PUSH8 0xFFFFFFFFFFFFFFFF DUP2 GT ISZERO PUSH2 0xA13 JUMPI PUSH2 0xA12 PUSH2 0x789 JUMP JUMPDEST JUMPDEST PUSH2 0xA1F DUP10 DUP3 DUP11 ADD PUSH2 0x8DC JUMP JUMPDEST SWAP2 POP POP SWAP3 SWAP6 POP SWAP3 SWAP6 POP SWAP3 SWAP6 JUMP JUMPDEST PUSH1 0x0 DUP2 MLOAD SWAP1 POP SWAP2 SWAP1 POP JUMP JUMPDEST PUSH1 0x0 DUP3 DUP3 MSTORE PUSH1 0x20 DUP3 ADD SWAP1 POP SWAP3 SWAP2 POP POP JUMP JUMPDEST PUSH1 0x0 JUMPDEST DUP4 DUP2 LT ISZERO PUSH2 0xA66 JUMPI DUP1 DUP3 ADD MLOAD DUP2 DUP5 ADD MSTORE PUSH1 0x20 DUP2 ADD SWAP1 POP PUSH2 0xA4B JUMP JUMPDEST PUSH1 0x0 DUP5 DUP5 ADD MSTORE POP POP POP POP JUMP JUMPDEST PUSH1 0x0 PUSH2 0xA7D DUP3 PUSH2 0xA2C JUMP JUMPDEST PUSH2 0xA87 DUP2 DUP6 PUSH2 0xA37 JUMP JUMPDEST SWAP4 POP PUSH2 0xA97 DUP2 DUP6 PUSH1 0x20 DUP7 ADD PUSH2 0xA48 JUMP JUMPDEST PUSH2 0xAA0 DUP2 PUSH2 0x7CE JUMP JUMPDEST DUP5 ADD SWAP2 POP POP SWAP3 SWAP2 POP POP JUMP JUMPDEST PUSH1 0x0 PUSH1 0x20 DUP3 ADD SWAP1 POP DUP2 DUP2 SUB PUSH1 0x0 DUP4 ADD MSTORE PUSH2 0xAC5 DUP2 DUP5 PUSH2 0xA72 JUMP JUMPDEST SWAP1 POP SWAP3 SWAP2 POP POP JUMP JUMPDEST PUSH1 0x0 DUP1 PUSH1 0x0 PUSH1 0x60 DUP5 DUP7 SUB SLT ISZERO PUSH2 0xAE6 JUMPI PUSH2 0xAE5 PUSH2 0x784 JUMP JUMPDEST JUMPDEST PUSH1 0x0 PUSH2 0xAF4 DUP7 DUP3 DUP8 ADD PUSH2 0x7AF JUMP JUMPDEST SWAP4 POP POP PUSH1 0x20 DUP5 ADD CALLDATALOAD PUSH8 0xFFFFFFFFFFFFFFFF DUP2 GT ISZERO PUSH2 0xB15 JUMPI PUSH2 0xB14 PUSH2 0x789 JUMP JUMPDEST JUMPDEST PUSH2 0xB21 DUP7 DUP3 DUP8 ADD PUSH2 0x8DC JUMP JUMPDEST SWAP3 POP POP PUSH1 0x40 DUP5 ADD CALLDATALOAD PUSH8 0xFFFFFFFFFFFFFFFF DUP2 GT ISZERO PUSH2 0xB42 JUMPI PUSH2 0xB41 PUSH2 0x789 JUMP JUMPDEST JUMPDEST PUSH2 0xB4E DUP7 DUP3 DUP8 ADD PUSH2 0x8DC JUMP JUMPDEST SWAP2 POP POP SWAP3 POP SWAP3 POP SWAP3 JUMP JUMPDEST PUSH1 0x0 PUSH1 0x20 DUP3 DUP5 SUB SLT ISZERO PUSH2 0xB6E JUMPI PUSH2 0xB6D PUSH2 0x784 JUMP JUMPDEST JUMPDEST PUSH1 0x0 PUSH2 0xB7C DUP5 DUP3 DUP6 ADD PUSH2 0x7AF JUMP JUMPDEST SWAP2 POP POP SWAP3 SWAP2 POP POP JUMP JUMPDEST PUSH2 0xB8E DUP2 PUSH2 0x78E JUMP JUMPDEST DUP3 MSTORE POP POP JUMP JUMPDEST PUSH1 0x0 PUSH1 0xC0 DUP3 ADD SWAP1 POP PUSH2 0xBA9 PUSH1 0x0 DUP4 ADD DUP10 PUSH2 0xB85 JUMP JUMPDEST DUP2 DUP2 SUB PUSH1 0x20 DUP4 ADD MSTORE PUSH2 0xBBB DUP2 DUP9 PUSH2 0xA72 JUMP JUMPDEST SWAP1 POP DUP2 DUP2 SUB PUSH1 0x40 DUP4 ADD MSTORE PUSH2 0xBCF DUP2 DUP8 PUSH2 0xA72 JUMP JUMPDEST SWAP1 POP DUP2 DUP2 SUB PUSH1 0x60 DUP4 ADD MSTORE PUSH2 0xBE3 DUP2 DUP7 PUSH2 0xA72 JUMP JUMPDEST SWAP1 POP DUP2 DUP2 SUB PUSH1 0x80 DUP4 ADD MSTORE PUSH2 0xBF7 DUP2 DUP6 PUSH2 0xA72 JUMP JUMPDEST SWAP1 POP DUP2 DUP2 SUB PUSH1 0xA0 DUP4 ADD MSTORE PUSH2 0xC0B DUP2 DUP5 PUSH2 0xA72 JUMP JUMPDEST SWAP1 POP SWAP8 SWAP7 POP POP POP POP POP POP POP JUMP JUMPDEST PUSH32 0x4E487B7100000000000000000000000000000000000000000000000000000000 PUSH1 0x0 MSTORE PUSH1 0x21 PUSH1 0x4 MSTORE PUSH1 0x24 PUSH1 0x0 REVERT JUMPDEST PUSH32 0x4E487B7100000000000000000000000000000000000000000000000000000000 PUSH1 0x0 MSTORE PUSH1 0x22 PUSH1 0x4 MSTORE PUSH1 0x24 PUSH1 0x0 REVERT JUMPDEST PUSH1 0x0 PUSH1 0x2 DUP3 DIV SWAP1 POP PUSH1 0x1 DUP3 AND DUP1 PUSH2 0xC8E JUMPI PUSH1 0x7F DUP3 AND SWAP2 POP JUMPDEST PUSH1 0x20 DUP3 LT DUP2 SUB PUSH2 0xCA1 JUMPI PUSH2 0xCA0 PUSH2 0xC47 JUMP JUMPDEST JUMPDEST POP SWAP2 SWAP1 POP JUMP JUMPDEST PUSH1 0x0 DUP2 SWAP1 POP DUP2 PUSH1 0x0 MSTORE PUSH1 0x20 PUSH1 0x0 KECCAK256 SWAP1 POP SWAP2 SWAP1 POP JUMP JUMPDEST PUSH1 0x0 PUSH1 0x20 PUSH1 0x1F DUP4 ADD DIV SWAP1 POP SWAP2 SWAP1 POP JUMP JUMPDEST PUSH1 0x0 DUP3 DUP3 SHL SWAP1 POP SWAP3 SWAP2 POP POP JUMP JUMPDEST PUSH1 0x0 PUSH1 0x8 DUP4 MUL PUSH2 0xD09 PUSH32 0xFFFFFFFFFFFFFFFFFFFFFFFFFFFFFFFFFFFFFFFFFFFFFFFFFFFFFFFFFFFFFFFF DUP3 PUSH2 0xCCC JUMP JUMPDEST PUSH2 0xD13 DUP7 DUP4 PUSH2 0xCCC JUMP JUMPDEST SWAP6 POP DUP1 NOT DUP5 AND SWAP4 POP DUP1 DUP7 AND DUP5 OR SWAP3 POP POP POP SWAP4 SWAP3 POP POP POP JUMP JUMPDEST PUSH1 0x0 DUP2 SWAP1 POP SWAP2 SWAP1 POP JUMP JUMPDEST PUSH1 0x0 PUSH2 0xD50 PUSH2 0xD4B PUSH2 0xD46 DUP5 PUSH2 0x78E JUMP JUMPDEST PUSH2 0xD2B JUMP JUMPDEST PUSH2 0x78E JUMP JUMPDEST SWAP1 POP SWAP2 SWAP1 POP JUMP JUMPDEST PUSH1 0x0 DUP2 SWAP1 POP SWAP2 SWAP1 POP JUMP JUMPDEST PUSH2 0xD6A DUP4 PUSH2 0xD35 JUMP JUMPDEST PUSH2 0xD7E PUSH2 0xD76 DUP3 PUSH2 0xD57 JUMP JUMPDEST DUP5 DUP5 SLOAD PUSH2 0xCD9 JUMP JUMPDEST DUP3 SSTORE POP POP POP POP JUMP JUMPDEST PUSH1 0x0 SWAP1 JUMP JUMPDEST PUSH2 0xD93 PUSH2 0xD86 JUMP JUMPDEST PUSH2 0xD9E DUP2 DUP5 DUP5 PUSH2 0xD61 JUMP JUMPDEST POP POP POP JUMP JUMPDEST JUMPDEST DUP2 DUP2 LT ISZERO PUSH2 0xDC2 JUMPI PUSH2 0xDB7 PUSH1 0x0 DUP3 PUSH2 0xD8B JUMP JUMPDEST PUSH1 0x1 DUP2 ADD SWAP1 POP PUSH2 0xDA4 JUMP JUMPDEST POP POP JUMP JUMPDEST PUSH1 0x1F DUP3 GT ISZERO PUSH2 0xE07 JUMPI PUSH2 0xDD8 DUP2 PUSH2 0xCA7 JUMP JUMPDEST PUSH2 0xDE1 DUP5 PUSH2 0xCBC JUMP JUMPDEST DUP2 ADD PUSH1 0x20 DUP6 LT ISZERO PUSH2 0xDF0 JUMPI DUP2 SWAP1 POP JUMPDEST PUSH2 0xE04 PUSH2 0xDFC DUP6 PUSH2 0xCBC JUMP JUMPDEST DUP4 ADD DUP3 PUSH2 0xDA3 JUMP JUMPDEST POP POP JUMPDEST POP POP POP JUMP JUMPDEST PUSH1 0x0 DUP3 DUP3 SHR SWAP1 POP SWAP3 SWAP2 POP POP JUMP JUMPDEST PUSH1 0x0 PUSH2 0xE2A PUSH1 0x0 NOT DUP5 PUSH1 0x8 MUL PUSH2 0xE0C JUMP JUMPDEST NOT DUP1 DUP4 AND SWAP2 POP POP SWAP3 SWAP2 POP POP JUMP JUMPDEST PUSH1 0x0 PUSH2 0xE43 DUP4 DUP4 PUSH2 0xE19 JUMP JUMPDEST SWAP2 POP DUP3 PUSH1 0x2 MUL DUP3 OR SWAP1 POP SWAP3 SWAP2 POP POP JUMP JUMPDEST PUSH2 0xE5C DUP3 PUSH2 0xA2C JUMP JUMPDEST PUSH8 0xFFFFFFFFFFFFFFFF DUP2 GT ISZERO PUSH2 0xE75 JUMPI PUSH2 0xE74 PUSH2 0x7DF JUMP JUMPDEST JUMPDEST PUSH2 0xE7F DUP3 SLOAD PUSH2 0xC76 JUMP JUMPDEST PUSH2 0xE8A DUP3 DUP3 DUP6 PUSH2 0xDC6 JUMP JUMPDEST PUSH1 0x0 PUSH1 0x20 SWAP1 POP PUSH1 0x1F DUP4 GT PUSH1 0x1 DUP2 EQ PUSH2 0xEBD JUMPI PUSH1 0x0 DUP5 ISZERO PUSH2 0xEAB JUMPI DUP3 DUP8 ADD MLOAD SWAP1 POP JUMPDEST PUSH2 0xEB5 DUP6 DUP3 PUSH2 0xE37 JUMP JUMPDEST DUP7 SSTORE POP PUSH2 0xF1D JUMP JUMPDEST PUSH1 0x1F NOT DUP5 AND PUSH2 0xECB DUP7 PUSH2 0xCA7 JUMP JUMPDEST PUSH1 0x0 JUMPDEST DUP3 DUP2 LT ISZERO PUSH2 0xEF3 JUMPI DUP5 DUP10 ADD MLOAD DUP3 SSTORE PUSH1 0x1 DUP3 ADD SWAP2 POP PUSH1 0x20 DUP6 ADD SWAP5 POP PUSH1 0x20 DUP2 ADD SWAP1 POP PUSH2 0xECE JUMP JUMPDEST DUP7 DUP4 LT ISZERO PUSH2 0xF10 JUMPI DUP5 DUP10 ADD MLOAD PUSH2 0xF0C PUSH1 0x1F DUP10 AND DUP3 PUSH2 0xE19 JUMP JUMPDEST DUP4 SSTORE POP JUMPDEST PUSH1 0x1 PUSH1 0x2 DUP9 MUL ADD DUP9 SSTORE POP POP POP JUMPDEST POP POP POP POP POP POP JUMP JUMPDEST PUSH32 0x50726F7065727479206E6F742072656769737465726400000000000000000000 PUSH1 0x0 DUP3 ADD MSTORE POP JUMP JUMPDEST PUSH1 0x0 PUSH2 0xF5B PUSH1 0x16 DUP4 PUSH2 0xA37 JUMP JUMPDEST SWAP2 POP PUSH2 0xF66 DUP3 PUSH2 0xF25 JUMP JUMPDEST PUSH1 0x20 DUP3 ADD SWAP1 POP SWAP2 SWAP1 POP JUMP JUMPDEST PUSH1 0x0 PUSH1 0x20 DUP3 ADD SWAP1 POP DUP2 DUP2 SUB PUSH1 0x0 DUP4 ADD MSTORE PUSH2 0xF8A DUP2 PUSH2 0xF4E JUMP JUMPDEST SWAP1 POP SWAP2 SWAP1 POP JUMP INVALID LOG2 PUSH5 0x6970667358 0x22 SLT KECCAK256 0x2A DUP3 0xD7 PUSH5 0xA840D55405 0xE SWAP16 0xF7 0xA8 0x4A SWAP8 0xAA LOG3 0xD0 0xDE 0xB8 LT 0xE3 0xB5 DUP15 0xF6 SWAP13 0x4A PUSH2 0x9107 PREVRANDAO 0xB6 PUSH5 0x736F6C6343 STOP ADDMOD SLT STOP CALLER "
				},
				"gasEstimates": {
					"creation": {
						"codeDepositCost": "807800",
						"executionCost": "844",
						"totalCost": "808644"
					},
					"external": {
						"addProperty(uint256,string,uint8,string,string,string)": "infinite",
						"getPropertByID(uint256)": "infinite",
						"transferProperty(uint256,string,string)": "infinite"
					},
					"internal": {
						"toString(enum main.PropertyType)": "infinite"
					}
				},
				"methodIdentifiers": {
					"addProperty(uint256,string,uint8,string,string,string)": "21a9ecb2",
					"getPropertByID(uint256)": "71eb56d8",
					"transferProperty(uint256,string,string)": "3e14d617"
				}
			},
			"storageLayout": {
				"storage": [
					{
						"astId": 27,
						"contract": "contracts/Property.sol:main",
						"label": "propertyMapping",
						"offset": 0,
						"slot": "0",
						"type": "t_mapping(t_uint256,t_struct(PropertyStruct)19_storage)"
					}
				],
				"types": {
					"t_enum(PropertyType)5": {
						"encoding": "inplace",
						"label": "enum main.PropertyType",
						"numberOfBytes": "1"
					},
					"t_mapping(t_uint256,t_struct(PropertyStruct)19_storage)": {
						"encoding": "mapping",
						"key": "t_uint256",
						"label": "mapping(uint256 => struct main.PropertyStruct)",
						"numberOfBytes": "32",
						"value": "t_struct(PropertyStruct)19_storage"
					},
					"t_string_storage": {
						"encoding": "bytes",
						"label": "string",
						"numberOfBytes": "32"
					},
					"t_struct(PropertyStruct)19_storage": {
						"encoding": "inplace",
						"label": "struct main.PropertyStruct",
						"members": [
							{
								"astId": 7,
								"contract": "contracts/Property.sol:main",
								"label": "propertyID",
								"offset": 0,
								"slot": "0",
								"type": "t_uint256"
							},
							{
								"astId": 9,
								"contract": "contracts/Property.sol:main",
								"label": "location",
								"offset": 0,
								"slot": "1",
								"type": "t_string_storage"
							},
							{
								"astId": 12,
								"contract": "contracts/Property.sol:main",
								"label": "propertyType",
								"offset": 0,
								"slot": "2",
								"type": "t_enum(PropertyType)5"
							},
							{
								"astId": 14,
								"contract": "contracts/Property.sol:main",
								"label": "size",
								"offset": 0,
								"slot": "3",
								"type": "t_string_storage"
							},
							{
								"astId": 16,
								"contract": "contracts/Property.sol:main",
								"label": "currentOwner",
								"offset": 0,
								"slot": "4",
								"type": "t_string_storage"
							},
							{
								"astId": 18,
								"contract": "contracts/Property.sol:main",
								"label": "currentOwnershipTransferDate",
								"offset": 0,
								"slot": "5",
								"type": "t_string_storage"
							}
						],
						"numberOfBytes": "192"
					},
					"t_uint256": {
						"encoding": "inplace",
						"label": "uint256",
						"numberOfBytes": "32"
					}
				}
			},
			"userdoc": {
				"kind": "user",
				"methods": {},
				"version": 1
			}
		}
	}
}